{
  "_format": "hh-sol-artifact-1",
  "contractName": "DAOMarketplaceNFT",
  "sourceName": "contracts/DAOMarketplaceNFT.sol",
  "abi": [
    {
      "inputs": [],
      "stateMutability": "nonpayable",
      "type": "constructor"
    },
    {
      "inputs": [
        {
          "internalType": "address",
          "name": "sender",
          "type": "address"
        },
        {
          "internalType": "uint256",
          "name": "tokenId",
          "type": "uint256"
        },
        {
          "internalType": "address",
          "name": "owner",
          "type": "address"
        }
      ],
      "name": "ERC721IncorrectOwner",
      "type": "error"
    },
    {
      "inputs": [
        {
          "internalType": "address",
          "name": "operator",
          "type": "address"
        },
        {
          "internalType": "uint256",
          "name": "tokenId",
          "type": "uint256"
        }
      ],
      "name": "ERC721InsufficientApproval",
      "type": "error"
    },
    {
      "inputs": [
        {
          "internalType": "address",
          "name": "approver",
          "type": "address"
        }
      ],
      "name": "ERC721InvalidApprover",
      "type": "error"
    },
    {
      "inputs": [
        {
          "internalType": "address",
          "name": "operator",
          "type": "address"
        }
      ],
      "name": "ERC721InvalidOperator",
      "type": "error"
    },
    {
      "inputs": [
        {
          "internalType": "address",
          "name": "owner",
          "type": "address"
        }
      ],
      "name": "ERC721InvalidOwner",
      "type": "error"
    },
    {
      "inputs": [
        {
          "internalType": "address",
          "name": "receiver",
          "type": "address"
        }
      ],
      "name": "ERC721InvalidReceiver",
      "type": "error"
    },
    {
      "inputs": [
        {
          "internalType": "address",
          "name": "sender",
          "type": "address"
        }
      ],
      "name": "ERC721InvalidSender",
      "type": "error"
    },
    {
      "inputs": [
        {
          "internalType": "uint256",
          "name": "tokenId",
          "type": "uint256"
        }
      ],
      "name": "ERC721NonexistentToken",
      "type": "error"
    },
    {
      "anonymous": false,
      "inputs": [
        {
          "indexed": true,
          "internalType": "address",
          "name": "owner",
          "type": "address"
        },
        {
          "indexed": true,
          "internalType": "address",
          "name": "approved",
          "type": "address"
        },
        {
          "indexed": true,
          "internalType": "uint256",
          "name": "tokenId",
          "type": "uint256"
        }
      ],
      "name": "Approval",
      "type": "event"
    },
    {
      "anonymous": false,
      "inputs": [
        {
          "indexed": true,
          "internalType": "address",
          "name": "owner",
          "type": "address"
        },
        {
          "indexed": true,
          "internalType": "address",
          "name": "operator",
          "type": "address"
        },
        {
          "indexed": false,
          "internalType": "bool",
          "name": "approved",
          "type": "bool"
        }
      ],
      "name": "ApprovalForAll",
      "type": "event"
    },
    {
      "anonymous": false,
      "inputs": [
        {
          "indexed": false,
          "internalType": "uint256",
          "name": "_fromTokenId",
          "type": "uint256"
        },
        {
          "indexed": false,
          "internalType": "uint256",
          "name": "_toTokenId",
          "type": "uint256"
        }
      ],
      "name": "BatchMetadataUpdate",
      "type": "event"
    },
    {
      "anonymous": false,
      "inputs": [
        {
          "indexed": false,
          "internalType": "uint256",
          "name": "_tokenId",
          "type": "uint256"
        }
      ],
      "name": "MetadataUpdate",
      "type": "event"
    },
    {
      "anonymous": false,
      "inputs": [
        {
          "indexed": true,
          "internalType": "uint256",
          "name": "tokenId",
          "type": "uint256"
        },
        {
          "indexed": true,
          "internalType": "address",
          "name": "creator",
          "type": "address"
        },
        {
          "indexed": false,
          "internalType": "string",
          "name": "tokenURI",
          "type": "string"
        },
        {
          "indexed": false,
          "internalType": "bytes32",
          "name": "metadataHash",
          "type": "bytes32"
        }
      ],
      "name": "NFTMinted",
      "type": "event"
    },
    {
      "anonymous": false,
      "inputs": [
        {
          "indexed": true,
          "internalType": "address",
          "name": "from",
          "type": "address"
        },
        {
          "indexed": true,
          "internalType": "address",
          "name": "to",
          "type": "address"
        },
        {
          "indexed": true,
          "internalType": "uint256",
          "name": "tokenId",
          "type": "uint256"
        }
      ],
      "name": "Transfer",
      "type": "event"
    },
    {
      "anonymous": false,
      "inputs": [
        {
          "indexed": true,
          "internalType": "uint256",
          "name": "tokenId",
          "type": "uint256"
        },
        {
          "indexed": true,
          "internalType": "address",
          "name": "user",
          "type": "address"
        },
        {
          "indexed": false,
          "internalType": "uint64",
          "name": "expires",
          "type": "uint64"
        }
      ],
      "name": "UpdateUser",
      "type": "event"
    },
    {
      "inputs": [
        {
          "internalType": "address",
          "name": "to",
          "type": "address"
        },
        {
          "internalType": "uint256",
          "name": "tokenId",
          "type": "uint256"
        }
      ],
      "name": "approve",
      "outputs": [],
      "stateMutability": "nonpayable",
      "type": "function"
    },
    {
      "inputs": [
        {
          "internalType": "address",
          "name": "owner",
          "type": "address"
        }
      ],
      "name": "balanceOf",
      "outputs": [
        {
          "internalType": "uint256",
          "name": "",
          "type": "uint256"
        }
      ],
      "stateMutability": "view",
      "type": "function"
    },
    {
      "inputs": [
        {
          "internalType": "uint256",
          "name": "",
          "type": "uint256"
        }
      ],
      "name": "creator",
      "outputs": [
        {
          "internalType": "address",
          "name": "",
          "type": "address"
        }
      ],
      "stateMutability": "view",
      "type": "function"
    },
    {
      "inputs": [
        {
          "internalType": "uint256",
          "name": "tokenId",
          "type": "uint256"
        }
      ],
      "name": "getApproved",
      "outputs": [
        {
          "internalType": "address",
          "name": "",
          "type": "address"
        }
      ],
      "stateMutability": "view",
      "type": "function"
    },
    {
      "inputs": [
        {
          "internalType": "address",
          "name": "owner",
          "type": "address"
        },
        {
          "internalType": "address",
          "name": "operator",
          "type": "address"
        }
      ],
      "name": "isApprovedForAll",
      "outputs": [
        {
          "internalType": "bool",
          "name": "",
          "type": "bool"
        }
      ],
      "stateMutability": "view",
      "type": "function"
    },
    {
      "inputs": [
        {
          "internalType": "address",
          "name": "to",
          "type": "address"
        },
        {
          "internalType": "string",
          "name": "uri",
          "type": "string"
        },
        {
          "internalType": "bytes32",
          "name": "metadataHash",
          "type": "bytes32"
        }
      ],
      "name": "mint",
      "outputs": [
        {
          "internalType": "uint256",
          "name": "",
          "type": "uint256"
        }
      ],
      "stateMutability": "nonpayable",
      "type": "function"
    },
    {
      "inputs": [],
      "name": "name",
      "outputs": [
        {
          "internalType": "string",
          "name": "",
          "type": "string"
        }
      ],
      "stateMutability": "view",
      "type": "function"
    },
    {
      "inputs": [
        {
          "internalType": "uint256",
          "name": "tokenId",
          "type": "uint256"
        }
      ],
      "name": "ownerOf",
      "outputs": [
        {
          "internalType": "address",
          "name": "",
          "type": "address"
        }
      ],
      "stateMutability": "view",
      "type": "function"
    },
    {
      "inputs": [
        {
          "internalType": "address",
          "name": "from",
          "type": "address"
        },
        {
          "internalType": "address",
          "name": "to",
          "type": "address"
        },
        {
          "internalType": "uint256",
          "name": "tokenId",
          "type": "uint256"
        }
      ],
      "name": "safeTransferFrom",
      "outputs": [],
      "stateMutability": "nonpayable",
      "type": "function"
    },
    {
      "inputs": [
        {
          "internalType": "address",
          "name": "from",
          "type": "address"
        },
        {
          "internalType": "address",
          "name": "to",
          "type": "address"
        },
        {
          "internalType": "uint256",
          "name": "tokenId",
          "type": "uint256"
        },
        {
          "internalType": "bytes",
          "name": "data",
          "type": "bytes"
        }
      ],
      "name": "safeTransferFrom",
      "outputs": [],
      "stateMutability": "nonpayable",
      "type": "function"
    },
    {
      "inputs": [
        {
          "internalType": "address",
          "name": "operator",
          "type": "address"
        },
        {
          "internalType": "bool",
          "name": "approved",
          "type": "bool"
        }
      ],
      "name": "setApprovalForAll",
      "outputs": [],
      "stateMutability": "nonpayable",
      "type": "function"
    },
    {
      "inputs": [
        {
          "internalType": "uint256",
          "name": "tokenId",
          "type": "uint256"
        },
        {
          "internalType": "address",
          "name": "user",
          "type": "address"
        },
        {
          "internalType": "uint64",
          "name": "expires",
          "type": "uint64"
        }
      ],
      "name": "setUser",
      "outputs": [],
      "stateMutability": "nonpayable",
      "type": "function"
    },
    {
      "inputs": [
        {
          "internalType": "bytes4",
          "name": "interfaceId",
          "type": "bytes4"
        }
      ],
      "name": "supportsInterface",
      "outputs": [
        {
          "internalType": "bool",
          "name": "",
          "type": "bool"
        }
      ],
      "stateMutability": "view",
      "type": "function"
    },
    {
      "inputs": [],
      "name": "symbol",
      "outputs": [
        {
          "internalType": "string",
          "name": "",
          "type": "string"
        }
      ],
      "stateMutability": "view",
      "type": "function"
    },
    {
      "inputs": [
        {
          "internalType": "uint256",
          "name": "",
          "type": "uint256"
        }
      ],
      "name": "tokenMetadataHash",
      "outputs": [
        {
          "internalType": "bytes32",
          "name": "",
          "type": "bytes32"
        }
      ],
      "stateMutability": "view",
      "type": "function"
    },
    {
      "inputs": [
        {
          "internalType": "uint256",
          "name": "tokenId",
          "type": "uint256"
        }
      ],
      "name": "tokenURI",
      "outputs": [
        {
          "internalType": "string",
          "name": "",
          "type": "string"
        }
      ],
      "stateMutability": "view",
      "type": "function"
    },
    {
      "inputs": [],
      "name": "totalSupply",
      "outputs": [
        {
          "internalType": "uint256",
          "name": "",
          "type": "uint256"
        }
      ],
      "stateMutability": "view",
      "type": "function"
    },
    {
      "inputs": [
        {
          "internalType": "address",
          "name": "from",
          "type": "address"
        },
        {
          "internalType": "address",
          "name": "to",
          "type": "address"
        },
        {
          "internalType": "uint256",
          "name": "tokenId",
          "type": "uint256"
        }
      ],
      "name": "transferFrom",
      "outputs": [],
      "stateMutability": "nonpayable",
      "type": "function"
    },
    {
      "inputs": [
        {
          "internalType": "uint256",
          "name": "tokenId",
          "type": "uint256"
        }
      ],
      "name": "userExpires",
      "outputs": [
        {
          "internalType": "uint64",
          "name": "",
          "type": "uint64"
        }
      ],
      "stateMutability": "view",
      "type": "function"
    },
    {
      "inputs": [
        {
          "internalType": "uint256",
          "name": "tokenId",
          "type": "uint256"
        }
      ],
      "name": "userOf",
      "outputs": [
        {
          "internalType": "address",
          "name": "",
          "type": "address"
        }
      ],
      "stateMutability": "view",
      "type": "function"
    }
  ],
  "bytecode": "0x60806040523480156200001157600080fd5b506040518060400160405280601381526020017f44414f204d61726b6574706c616365204e4654000000000000000000000000008152506040518060400160405280600681526020017f44414f4e4654000000000000000000000000000000000000000000000000000081525081600090816200008f91906200032c565b508060019081620000a191906200032c565b505050600160078190555062000413565b600081519050919050565b7f4e487b7100000000000000000000000000000000000000000000000000000000600052604160045260246000fd5b7f4e487b7100000000000000000000000000000000000000000000000000000000600052602260045260246000fd5b600060028204905060018216806200013457607f821691505b6020821081036200014a5762000149620000ec565b5b50919050565b60008190508160005260206000209050919050565b60006020601f8301049050919050565b600082821b905092915050565b600060088302620001b47fffffffffffffffffffffffffffffffffffffffffffffffffffffffffffffffff8262000175565b620001c0868362000175565b95508019841693508086168417925050509392505050565b6000819050919050565b6000819050919050565b60006200020d620002076200020184620001d8565b620001e2565b620001d8565b9050919050565b6000819050919050565b6200022983620001ec565b62000241620002388262000214565b84845462000182565b825550505050565b600090565b6200025862000249565b620002658184846200021e565b505050565b5b818110156200028d57620002816000826200024e565b6001810190506200026b565b5050565b601f821115620002dc57620002a68162000150565b620002b18462000165565b81016020851015620002c1578190505b620002d9620002d08562000165565b8301826200026a565b50505b505050565b600082821c905092915050565b60006200030160001984600802620002e1565b1980831691505092915050565b60006200031c8383620002ee565b9150826002028217905092915050565b6200033782620000b2565b67ffffffffffffffff811115620003535762000352620000bd565b5b6200035f82546200011b565b6200036c82828562000291565b600060209050601f831160018114620003a457600084156200038f578287015190505b6200039b85826200030e565b8655506200040b565b601f198416620003b48662000150565b60005b82811015620003de57848901518255600182019150602085019450602081019050620003b7565b86831015620003fe5784890151620003fa601f891682620002ee565b8355505b6001600288020188555050505b505050505050565b612c4480620004236000396000f3fe608060405234801561001057600080fd5b506004361061012c5760003560e01c80638fc88c48116100ad578063c87b56dd11610071578063c87b56dd14610367578063d34047b614610397578063e030565e146103c7578063e985e9c5146103e3578063f285f25c146104135761012c565b80638fc88c48146102b157806395d89b41146102e1578063a22cb465146102ff578063b88d4fde1461031b578063c2f1f14a146103375761012c565b806323b872dd116100f457806323b872dd146101e957806342842e0e14610205578063510b5158146102215780636352211e1461025157806370a08231146102815761012c565b806301ffc9a71461013157806306fdde0314610161578063081812fc1461017f578063095ea7b3146101af57806318160ddd146101cb575b600080fd5b61014b60048036038101906101469190611d9e565b610443565b6040516101589190611de6565b60405180910390f35b6101696104bd565b6040516101769190611e91565b60405180910390f35b61019960048036038101906101949190611ee9565b61054f565b6040516101a69190611f57565b60405180910390f35b6101c960048036038101906101c49190611f9e565b61056b565b005b6101d3610581565b6040516101e09190611fed565b60405180910390f35b61020360048036038101906101fe9190612008565b610597565b005b61021f600480360381019061021a9190612008565b610699565b005b61023b60048036038101906102369190611ee9565b6106b9565b6040516102489190611f57565b60405180910390f35b61026b60048036038101906102669190611ee9565b6106ec565b6040516102789190611f57565b60405180910390f35b61029b6004803603810190610296919061205b565b6106fe565b6040516102a89190611fed565b60405180910390f35b6102cb60048036038101906102c69190611ee9565b6107b8565b6040516102d891906120ab565b60405180910390f35b6102e96107ec565b6040516102f69190611e91565b60405180910390f35b610319600480360381019061031491906120f2565b61087e565b005b61033560048036038101906103309190612267565b610894565b005b610351600480360381019061034c9190611ee9565b6108b9565b60405161035e9190611f57565b60405180910390f35b610381600480360381019061037c9190611ee9565b61093e565b60405161038e9190611e91565b60405180910390f35b6103b160048036038101906103ac91906123c1565b610a51565b6040516103be9190611fed565b60405180910390f35b6103e160048036038101906103dc919061245c565b610bd5565b005b6103fd60048036038101906103f891906124af565b610d01565b60405161040a9190611de6565b60405180910390f35b61042d60048036038101906104289190611ee9565b610d95565b60405161043a91906124fe565b60405180910390f35b60007fad092b5c000000000000000000000000000000000000000000000000000000007bffffffffffffffffffffffffffffffffffffffffffffffffffffffff1916827bffffffffffffffffffffffffffffffffffffffffffffffffffffffff191614806104b657506104b582610dad565b5b9050919050565b6060600080546104cc90612548565b80601f01602080910402602001604051908101604052809291908181526020018280546104f890612548565b80156105455780601f1061051a57610100808354040283529160200191610545565b820191906000526020600020905b81548152906001019060200180831161052857829003601f168201915b5050505050905090565b600061055a82610e0e565b5061056482610e96565b9050919050565b61057d8282610578610ed3565b610edb565b5050565b6000600160075461059291906125a8565b905090565b600073ffffffffffffffffffffffffffffffffffffffff168273ffffffffffffffffffffffffffffffffffffffff16036106095760006040517f64a0ae920000000000000000000000000000000000000000000000000000000081526004016106009190611f57565b60405180910390fd5b600061061d8383610618610ed3565b610eed565b90508373ffffffffffffffffffffffffffffffffffffffff168173ffffffffffffffffffffffffffffffffffffffff1614610693578382826040517f64283d7b00000000000000000000000000000000000000000000000000000000815260040161068a939291906125dc565b60405180910390fd5b50505050565b6106b483838360405180602001604052806000815250610894565b505050565b60096020528060005260406000206000915054906101000a900473ffffffffffffffffffffffffffffffffffffffff1681565b60006106f782610e0e565b9050919050565b60008073ffffffffffffffffffffffffffffffffffffffff168273ffffffffffffffffffffffffffffffffffffffff16036107715760006040517f89c62b640000000000000000000000000000000000000000000000000000000081526004016107689190611f57565b60405180910390fd5b600360008373ffffffffffffffffffffffffffffffffffffffff1673ffffffffffffffffffffffffffffffffffffffff168152602001908152602001600020549050919050565b60006008600083815260200190815260200160002060000160149054906101000a900467ffffffffffffffff169050919050565b6060600180546107fb90612548565b80601f016020809104026020016040519081016040528092919081815260200182805461082790612548565b80156108745780601f1061084957610100808354040283529160200191610874565b820191906000526020600020905b81548152906001019060200180831161085757829003601f168201915b5050505050905090565b610890610889610ed3565b8383611107565b5050565b61089f848484610597565b6108b36108aa610ed3565b85858585611276565b50505050565b6000426008600084815260200190815260200160002060000160149054906101000a900467ffffffffffffffff1667ffffffffffffffff1610610934576008600083815260200190815260200160002060000160009054906101000a900473ffffffffffffffffffffffffffffffffffffffff169050610939565b600090505b919050565b606061094982610e0e565b50600060066000848152602001908152602001600020805461096a90612548565b80601f016020809104026020016040519081016040528092919081815260200182805461099690612548565b80156109e35780601f106109b8576101008083540402835291602001916109e3565b820191906000526020600020905b8154815290600101906020018083116109c657829003601f168201915b5050505050905060006109f4611427565b90506000815103610a09578192505050610a4c565b600082511115610a3e578082604051602001610a2692919061264f565b60405160208183030381529060405292505050610a4c565b610a478461143e565b925050505b919050565b60008060001b8203610a98576040517f08c379a0000000000000000000000000000000000000000000000000000000008152600401610a8f906126bf565b60405180910390fd5b6000835111610adc576040517f08c379a0000000000000000000000000000000000000000000000000000000008152600401610ad39061272b565b60405180910390fd5b6000600754905060076000815480929190610af69061274b565b9190505550610b0585826114a7565b610b0f81856114c5565b336009600083815260200190815260200160002060006101000a81548173ffffffffffffffffffffffffffffffffffffffff021916908373ffffffffffffffffffffffffffffffffffffffff16021790555082600a6000838152602001908152602001600020819055503373ffffffffffffffffffffffffffffffffffffffff16817fcb4d488c9c856f58bf738fd4decd617b237b9923e4ddee8a9dbbd326d49142368686604051610bc2929190612793565b60405180910390a3809150509392505050565b610be8610be1846106ec565b3385611521565b610c27576040517f08c379a0000000000000000000000000000000000000000000000000000000008152600401610c1e90612835565b60405180910390fd5b6000600860008581526020019081526020016000209050828160000160006101000a81548173ffffffffffffffffffffffffffffffffffffffff021916908373ffffffffffffffffffffffffffffffffffffffff160217905550818160000160146101000a81548167ffffffffffffffff021916908367ffffffffffffffff1602179055508273ffffffffffffffffffffffffffffffffffffffff16847f4e06b4e7000e659094299b3533b47b6aa8ad048e95e872d23d1f4ee55af89cfe84604051610cf391906120ab565b60405180910390a350505050565b6000600560008473ffffffffffffffffffffffffffffffffffffffff1673ffffffffffffffffffffffffffffffffffffffff16815260200190815260200160002060008373ffffffffffffffffffffffffffffffffffffffff1673ffffffffffffffffffffffffffffffffffffffff16815260200190815260200160002060009054906101000a900460ff16905092915050565b600a6020528060005260406000206000915090505481565b6000634906490660e01b7bffffffffffffffffffffffffffffffffffffffffffffffffffffffff1916827bffffffffffffffffffffffffffffffffffffffffffffffffffffffff19161480610e075750610e06826115e2565b5b9050919050565b600080610e1a836116c4565b9050600073ffffffffffffffffffffffffffffffffffffffff168173ffffffffffffffffffffffffffffffffffffffff1603610e8d57826040517f7e273289000000000000000000000000000000000000000000000000000000008152600401610e849190611fed565b60405180910390fd5b80915050919050565b60006004600083815260200190815260200160002060009054906101000a900473ffffffffffffffffffffffffffffffffffffffff169050919050565b600033905090565b610ee88383836001611701565b505050565b600080610ef9846116c4565b9050600073ffffffffffffffffffffffffffffffffffffffff168373ffffffffffffffffffffffffffffffffffffffff1614610f3b57610f3a8184866118c6565b5b600073ffffffffffffffffffffffffffffffffffffffff168173ffffffffffffffffffffffffffffffffffffffff1614610fcc57610f7d600085600080611701565b6001600360008373ffffffffffffffffffffffffffffffffffffffff1673ffffffffffffffffffffffffffffffffffffffff168152602001908152602001600020600082825403925050819055505b600073ffffffffffffffffffffffffffffffffffffffff168573ffffffffffffffffffffffffffffffffffffffff161461104f576001600360008773ffffffffffffffffffffffffffffffffffffffff1673ffffffffffffffffffffffffffffffffffffffff168152602001908152602001600020600082825401925050819055505b846002600086815260200190815260200160002060006101000a81548173ffffffffffffffffffffffffffffffffffffffff021916908373ffffffffffffffffffffffffffffffffffffffff160217905550838573ffffffffffffffffffffffffffffffffffffffff168273ffffffffffffffffffffffffffffffffffffffff167fddf252ad1be2c89b69c2b068fc378daa952ba7f163c4a11628f55a4df523b3ef60405160405180910390a4809150509392505050565b600073ffffffffffffffffffffffffffffffffffffffff168273ffffffffffffffffffffffffffffffffffffffff160361117857816040517f5b08ba1800000000000000000000000000000000000000000000000000000000815260040161116f9190611f57565b60405180910390fd5b80600560008573ffffffffffffffffffffffffffffffffffffffff1673ffffffffffffffffffffffffffffffffffffffff16815260200190815260200160002060008473ffffffffffffffffffffffffffffffffffffffff1673ffffffffffffffffffffffffffffffffffffffff16815260200190815260200160002060006101000a81548160ff0219169083151502179055508173ffffffffffffffffffffffffffffffffffffffff168373ffffffffffffffffffffffffffffffffffffffff167f17307eab39ab6107e8899845ad3d59bd9653f200f220920489ca2b5937696c31836040516112699190611de6565b60405180910390a3505050565b60008373ffffffffffffffffffffffffffffffffffffffff163b1115611420578273ffffffffffffffffffffffffffffffffffffffff1663150b7a02868685856040518563ffffffff1660e01b81526004016112d594939291906128aa565b6020604051808303816000875af192505050801561131157506040513d601f19601f8201168201806040525081019061130e919061290b565b60015b611395573d8060008114611341576040519150601f19603f3d011682016040523d82523d6000602084013e611346565b606091505b50600081510361138d57836040517f64a0ae920000000000000000000000000000000000000000000000000000000081526004016113849190611f57565b60405180910390fd5b805160208201fd5b63150b7a0260e01b7bffffffffffffffffffffffffffffffffffffffffffffffffffffffff1916817bffffffffffffffffffffffffffffffffffffffffffffffffffffffff19161461141e57836040517f64a0ae920000000000000000000000000000000000000000000000000000000081526004016114159190611f57565b60405180910390fd5b505b5050505050565b606060405180602001604052806000815250905090565b606061144982610e0e565b506000611454611427565b90506000815111611474576040518060200160405280600081525061149f565b8061147e8461198a565b60405160200161148f92919061264f565b6040516020818303038152906040525b915050919050565b6114c1828260405180602001604052806000815250611a58565b5050565b806006600084815260200190815260200160002090816114e59190612ae4565b507ff8e1a15aba9398e019f0b49df1a4fde98ee17ae345cb5f6b5e2c27f5033e8ce7826040516115159190611fed565b60405180910390a15050565b60008073ffffffffffffffffffffffffffffffffffffffff168373ffffffffffffffffffffffffffffffffffffffff16141580156115d957508273ffffffffffffffffffffffffffffffffffffffff168473ffffffffffffffffffffffffffffffffffffffff16148061159a57506115998484610d01565b5b806115d857508273ffffffffffffffffffffffffffffffffffffffff166115c083610e96565b73ffffffffffffffffffffffffffffffffffffffff16145b5b90509392505050565b60007f80ac58cd000000000000000000000000000000000000000000000000000000007bffffffffffffffffffffffffffffffffffffffffffffffffffffffff1916827bffffffffffffffffffffffffffffffffffffffffffffffffffffffff191614806116ad57507f5b5e139f000000000000000000000000000000000000000000000000000000007bffffffffffffffffffffffffffffffffffffffffffffffffffffffff1916827bffffffffffffffffffffffffffffffffffffffffffffffffffffffff1916145b806116bd57506116bc82611a7c565b5b9050919050565b60006002600083815260200190815260200160002060009054906101000a900473ffffffffffffffffffffffffffffffffffffffff169050919050565b808061173a5750600073ffffffffffffffffffffffffffffffffffffffff168273ffffffffffffffffffffffffffffffffffffffff1614155b1561186e57600061174a84610e0e565b9050600073ffffffffffffffffffffffffffffffffffffffff168373ffffffffffffffffffffffffffffffffffffffff16141580156117b557508273ffffffffffffffffffffffffffffffffffffffff168173ffffffffffffffffffffffffffffffffffffffff1614155b80156117c857506117c68184610d01565b155b1561180a57826040517fa9fbf51f0000000000000000000000000000000000000000000000000000000081526004016118019190611f57565b60405180910390fd5b811561186c57838573ffffffffffffffffffffffffffffffffffffffff168273ffffffffffffffffffffffffffffffffffffffff167f8c5be1e5ebec7d5bd14f71427d1e84f3dd0314c0f7b2291e5b200ac8c7c3b92560405160405180910390a45b505b836004600085815260200190815260200160002060006101000a81548173ffffffffffffffffffffffffffffffffffffffff021916908373ffffffffffffffffffffffffffffffffffffffff16021790555050505050565b6118d1838383611521565b61198557600073ffffffffffffffffffffffffffffffffffffffff168373ffffffffffffffffffffffffffffffffffffffff160361194657806040517f7e27328900000000000000000000000000000000000000000000000000000000815260040161193d9190611fed565b60405180910390fd5b81816040517f177e802f00000000000000000000000000000000000000000000000000000000815260040161197c929190612bb6565b60405180910390fd5b505050565b60606000600161199984611ae6565b01905060008167ffffffffffffffff8111156119b8576119b761213c565b5b6040519080825280601f01601f1916602001820160405280156119ea5781602001600182028036833780820191505090505b509050600082602083010190505b600115611a4d578080600190039150507f3031323334353637383961626364656600000000000000000000000000000000600a86061a8153600a8581611a4157611a40612bdf565b5b049450600085036119f8575b819350505050919050565b611a628383611c39565b611a77611a6d610ed3565b6000858585611276565b505050565b60007f01ffc9a7000000000000000000000000000000000000000000000000000000007bffffffffffffffffffffffffffffffffffffffffffffffffffffffff1916827bffffffffffffffffffffffffffffffffffffffffffffffffffffffff1916149050919050565b600080600090507a184f03e93ff9f4daa797ed6e38ed64bf6a1f0100000000000000008310611b44577a184f03e93ff9f4daa797ed6e38ed64bf6a1f0100000000000000008381611b3a57611b39612bdf565b5b0492506040810190505b6d04ee2d6d415b85acef81000000008310611b81576d04ee2d6d415b85acef81000000008381611b7757611b76612bdf565b5b0492506020810190505b662386f26fc100008310611bb057662386f26fc100008381611ba657611ba5612bdf565b5b0492506010810190505b6305f5e1008310611bd9576305f5e1008381611bcf57611bce612bdf565b5b0492506008810190505b6127108310611bfe576127108381611bf457611bf3612bdf565b5b0492506004810190505b60648310611c215760648381611c1757611c16612bdf565b5b0492506002810190505b600a8310611c30576001810190505b80915050919050565b600073ffffffffffffffffffffffffffffffffffffffff168273ffffffffffffffffffffffffffffffffffffffff1603611cab5760006040517f64a0ae92000000000000000000000000000000000000000000000000000000008152600401611ca29190611f57565b60405180910390fd5b6000611cb983836000610eed565b9050600073ffffffffffffffffffffffffffffffffffffffff168173ffffffffffffffffffffffffffffffffffffffff1614611d2d5760006040517f73c6ac6e000000000000000000000000000000000000000000000000000000008152600401611d249190611f57565b60405180910390fd5b505050565b6000604051905090565b600080fd5b600080fd5b60007fffffffff0000000000000000000000000000000000000000000000000000000082169050919050565b611d7b81611d46565b8114611d8657600080fd5b50565b600081359050611d9881611d72565b92915050565b600060208284031215611db457611db3611d3c565b5b6000611dc284828501611d89565b91505092915050565b60008115159050919050565b611de081611dcb565b82525050565b6000602082019050611dfb6000830184611dd7565b92915050565b600081519050919050565b600082825260208201905092915050565b60005b83811015611e3b578082015181840152602081019050611e20565b60008484015250505050565b6000601f19601f8301169050919050565b6000611e6382611e01565b611e6d8185611e0c565b9350611e7d818560208601611e1d565b611e8681611e47565b840191505092915050565b60006020820190508181036000830152611eab8184611e58565b905092915050565b6000819050919050565b611ec681611eb3565b8114611ed157600080fd5b50565b600081359050611ee381611ebd565b92915050565b600060208284031215611eff57611efe611d3c565b5b6000611f0d84828501611ed4565b91505092915050565b600073ffffffffffffffffffffffffffffffffffffffff82169050919050565b6000611f4182611f16565b9050919050565b611f5181611f36565b82525050565b6000602082019050611f6c6000830184611f48565b92915050565b611f7b81611f36565b8114611f8657600080fd5b50565b600081359050611f9881611f72565b92915050565b60008060408385031215611fb557611fb4611d3c565b5b6000611fc385828601611f89565b9250506020611fd485828601611ed4565b9150509250929050565b611fe781611eb3565b82525050565b60006020820190506120026000830184611fde565b92915050565b60008060006060848603121561202157612020611d3c565b5b600061202f86828701611f89565b935050602061204086828701611f89565b925050604061205186828701611ed4565b9150509250925092565b60006020828403121561207157612070611d3c565b5b600061207f84828501611f89565b91505092915050565b600067ffffffffffffffff82169050919050565b6120a581612088565b82525050565b60006020820190506120c0600083018461209c565b92915050565b6120cf81611dcb565b81146120da57600080fd5b50565b6000813590506120ec816120c6565b92915050565b6000806040838503121561210957612108611d3c565b5b600061211785828601611f89565b9250506020612128858286016120dd565b9150509250929050565b600080fd5b600080fd5b7f4e487b7100000000000000000000000000000000000000000000000000000000600052604160045260246000fd5b61217482611e47565b810181811067ffffffffffffffff821117156121935761219261213c565b5b80604052505050565b60006121a6611d32565b90506121b2828261216b565b919050565b600067ffffffffffffffff8211156121d2576121d161213c565b5b6121db82611e47565b9050602081019050919050565b82818337600083830152505050565b600061220a612205846121b7565b61219c565b90508281526020810184848401111561222657612225612137565b5b6122318482856121e8565b509392505050565b600082601f83011261224e5761224d612132565b5b813561225e8482602086016121f7565b91505092915050565b6000806000806080858703121561228157612280611d3c565b5b600061228f87828801611f89565b94505060206122a087828801611f89565b93505060406122b187828801611ed4565b925050606085013567ffffffffffffffff8111156122d2576122d1611d41565b5b6122de87828801612239565b91505092959194509250565b600067ffffffffffffffff8211156123055761230461213c565b5b61230e82611e47565b9050602081019050919050565b600061232e612329846122ea565b61219c565b90508281526020810184848401111561234a57612349612137565b5b6123558482856121e8565b509392505050565b600082601f83011261237257612371612132565b5b813561238284826020860161231b565b91505092915050565b6000819050919050565b61239e8161238b565b81146123a957600080fd5b50565b6000813590506123bb81612395565b92915050565b6000806000606084860312156123da576123d9611d3c565b5b60006123e886828701611f89565b935050602084013567ffffffffffffffff81111561240957612408611d41565b5b6124158682870161235d565b9250506040612426868287016123ac565b9150509250925092565b61243981612088565b811461244457600080fd5b50565b60008135905061245681612430565b92915050565b60008060006060848603121561247557612474611d3c565b5b600061248386828701611ed4565b935050602061249486828701611f89565b92505060406124a586828701612447565b9150509250925092565b600080604083850312156124c6576124c5611d3c565b5b60006124d485828601611f89565b92505060206124e585828601611f89565b9150509250929050565b6124f88161238b565b82525050565b600060208201905061251360008301846124ef565b92915050565b7f4e487b7100000000000000000000000000000000000000000000000000000000600052602260045260246000fd5b6000600282049050600182168061256057607f821691505b60208210810361257357612572612519565b5b50919050565b7f4e487b7100000000000000000000000000000000000000000000000000000000600052601160045260246000fd5b60006125b382611eb3565b91506125be83611eb3565b92508282039050818111156125d6576125d5612579565b5b92915050565b60006060820190506125f16000830186611f48565b6125fe6020830185611fde565b61260b6040830184611f48565b949350505050565b600081905092915050565b600061262982611e01565b6126338185612613565b9350612643818560208601611e1d565b80840191505092915050565b600061265b828561261e565b9150612667828461261e565b91508190509392505050565b7f4d65746164617461206861736820697320726571756972656400000000000000600082015250565b60006126a9601983611e0c565b91506126b482612673565b602082019050919050565b600060208201905081810360008301526126d88161269c565b9050919050565b7f5552492069732072657175697265640000000000000000000000000000000000600082015250565b6000612715600f83611e0c565b9150612720826126df565b602082019050919050565b6000602082019050818103600083015261274481612708565b9050919050565b600061275682611eb3565b91507fffffffffffffffffffffffffffffffffffffffffffffffffffffffffffffffff820361278857612787612579565b5b600182019050919050565b600060408201905081810360008301526127ad8185611e58565b90506127bc60208301846124ef565b9392505050565b7f4552433732313a207472616e736665722063616c6c6572206973206e6f74206f60008201527f776e6572206e6f7220617070726f766564000000000000000000000000000000602082015250565b600061281f603183611e0c565b915061282a826127c3565b604082019050919050565b6000602082019050818103600083015261284e81612812565b9050919050565b600081519050919050565b600082825260208201905092915050565b600061287c82612855565b6128868185612860565b9350612896818560208601611e1d565b61289f81611e47565b840191505092915050565b60006080820190506128bf6000830187611f48565b6128cc6020830186611f48565b6128d96040830185611fde565b81810360608301526128eb8184612871565b905095945050505050565b60008151905061290581611d72565b92915050565b60006020828403121561292157612920611d3c565b5b600061292f848285016128f6565b91505092915050565b60008190508160005260206000209050919050565b60006020601f8301049050919050565b600082821b905092915050565b60006008830261299a7fffffffffffffffffffffffffffffffffffffffffffffffffffffffffffffffff8261295d565b6129a4868361295d565b95508019841693508086168417925050509392505050565b6000819050919050565b60006129e16129dc6129d784611eb3565b6129bc565b611eb3565b9050919050565b6000819050919050565b6129fb836129c6565b612a0f612a07826129e8565b84845461296a565b825550505050565b600090565b612a24612a17565b612a2f8184846129f2565b505050565b5b81811015612a5357612a48600082612a1c565b600181019050612a35565b5050565b601f821115612a9857612a6981612938565b612a728461294d565b81016020851015612a81578190505b612a95612a8d8561294d565b830182612a34565b50505b505050565b600082821c905092915050565b6000612abb60001984600802612a9d565b1980831691505092915050565b6000612ad48383612aaa565b9150826002028217905092915050565b612aed82611e01565b67ffffffffffffffff811115612b0657612b0561213c565b5b612b108254612548565b612b1b828285612a57565b600060209050601f831160018114612b4e5760008415612b3c578287015190505b612b468582612ac8565b865550612bae565b601f198416612b5c86612938565b60005b82811015612b8457848901518255600182019150602085019450602081019050612b5f565b86831015612ba15784890151612b9d601f891682612aaa565b8355505b6001600288020188555050505b505050505050565b6000604082019050612bcb6000830185611f48565b612bd86020830184611fde565b9392505050565b7f4e487b7100000000000000000000000000000000000000000000000000000000600052601260045260246000fdfea26469706673582212200209a8a755e37ced26dc05b8d4b4eacc0ec49af53caf842a2761e2144ba5520264736f6c63430008140033",
  "linkReferences": {},
  "deployedLinkReferences": {}
}