{
  "_format": "hh3-artifact-1",
  "contractName": "DAOMarketplaceNFT",
  "sourceName": "contracts/DAOMarketplaceNFT.sol",
  "abi": [
    {
      "inputs": [],
      "stateMutability": "nonpayable",
      "type": "constructor"
    },
    {
      "inputs": [
        {
          "internalType": "address",
          "name": "sender",
          "type": "address"
        },
        {
          "internalType": "uint256",
          "name": "tokenId",
          "type": "uint256"
        },
        {
          "internalType": "address",
          "name": "owner",
          "type": "address"
        }
      ],
      "name": "ERC721IncorrectOwner",
      "type": "error"
    },
    {
      "inputs": [
        {
          "internalType": "address",
          "name": "operator",
          "type": "address"
        },
        {
          "internalType": "uint256",
          "name": "tokenId",
          "type": "uint256"
        }
      ],
      "name": "ERC721InsufficientApproval",
      "type": "error"
    },
    {
      "inputs": [
        {
          "internalType": "address",
          "name": "approver",
          "type": "address"
        }
      ],
      "name": "ERC721InvalidApprover",
      "type": "error"
    },
    {
      "inputs": [
        {
          "internalType": "address",
          "name": "operator",
          "type": "address"
        }
      ],
      "name": "ERC721InvalidOperator",
      "type": "error"
    },
    {
      "inputs": [
        {
          "internalType": "address",
          "name": "owner",
          "type": "address"
        }
      ],
      "name": "ERC721InvalidOwner",
      "type": "error"
    },
    {
      "inputs": [
        {
          "internalType": "address",
          "name": "receiver",
          "type": "address"
        }
      ],
      "name": "ERC721InvalidReceiver",
      "type": "error"
    },
    {
      "inputs": [
        {
          "internalType": "address",
          "name": "sender",
          "type": "address"
        }
      ],
      "name": "ERC721InvalidSender",
      "type": "error"
    },
    {
      "inputs": [
        {
          "internalType": "uint256",
          "name": "tokenId",
          "type": "uint256"
        }
      ],
      "name": "ERC721NonexistentToken",
      "type": "error"
    },
    {
      "anonymous": false,
      "inputs": [
        {
          "indexed": true,
          "internalType": "address",
          "name": "owner",
          "type": "address"
        },
        {
          "indexed": true,
          "internalType": "address",
          "name": "approved",
          "type": "address"
        },
        {
          "indexed": true,
          "internalType": "uint256",
          "name": "tokenId",
          "type": "uint256"
        }
      ],
      "name": "Approval",
      "type": "event"
    },
    {
      "anonymous": false,
      "inputs": [
        {
          "indexed": true,
          "internalType": "address",
          "name": "owner",
          "type": "address"
        },
        {
          "indexed": true,
          "internalType": "address",
          "name": "operator",
          "type": "address"
        },
        {
          "indexed": false,
          "internalType": "bool",
          "name": "approved",
          "type": "bool"
        }
      ],
      "name": "ApprovalForAll",
      "type": "event"
    },
    {
      "anonymous": false,
      "inputs": [
        {
          "indexed": false,
          "internalType": "uint256",
          "name": "_fromTokenId",
          "type": "uint256"
        },
        {
          "indexed": false,
          "internalType": "uint256",
          "name": "_toTokenId",
          "type": "uint256"
        }
      ],
      "name": "BatchMetadataUpdate",
      "type": "event"
    },
    {
      "anonymous": false,
      "inputs": [
        {
          "indexed": false,
          "internalType": "uint256",
          "name": "_tokenId",
          "type": "uint256"
        }
      ],
      "name": "MetadataUpdate",
      "type": "event"
    },
    {
      "anonymous": false,
      "inputs": [
        {
          "indexed": true,
          "internalType": "uint256",
          "name": "tokenId",
          "type": "uint256"
        },
        {
          "indexed": true,
          "internalType": "address",
          "name": "creator",
          "type": "address"
        },
        {
          "indexed": false,
          "internalType": "string",
          "name": "tokenURI",
          "type": "string"
        }
      ],
      "name": "NFTMinted",
      "type": "event"
    },
    {
      "anonymous": false,
      "inputs": [
        {
          "indexed": true,
          "internalType": "address",
          "name": "from",
          "type": "address"
        },
        {
          "indexed": true,
          "internalType": "address",
          "name": "to",
          "type": "address"
        },
        {
          "indexed": true,
          "internalType": "uint256",
          "name": "tokenId",
          "type": "uint256"
        }
      ],
      "name": "Transfer",
      "type": "event"
    },
    {
      "inputs": [
        {
          "internalType": "address",
          "name": "to",
          "type": "address"
        },
        {
          "internalType": "uint256",
          "name": "tokenId",
          "type": "uint256"
        }
      ],
      "name": "approve",
      "outputs": [],
      "stateMutability": "nonpayable",
      "type": "function"
    },
    {
      "inputs": [
        {
          "internalType": "address",
          "name": "owner",
          "type": "address"
        }
      ],
      "name": "balanceOf",
      "outputs": [
        {
          "internalType": "uint256",
          "name": "",
          "type": "uint256"
        }
      ],
      "stateMutability": "view",
      "type": "function"
    },
    {
      "inputs": [
        {
          "internalType": "uint256",
          "name": "",
          "type": "uint256"
        }
      ],
      "name": "creator",
      "outputs": [
        {
          "internalType": "address",
          "name": "",
          "type": "address"
        }
      ],
      "stateMutability": "view",
      "type": "function"
    },
    {
      "inputs": [
        {
          "internalType": "uint256",
          "name": "tokenId",
          "type": "uint256"
        }
      ],
      "name": "getApproved",
      "outputs": [
        {
          "internalType": "address",
          "name": "",
          "type": "address"
        }
      ],
      "stateMutability": "view",
      "type": "function"
    },
    {
      "inputs": [
        {
          "internalType": "address",
          "name": "owner",
          "type": "address"
        },
        {
          "internalType": "address",
          "name": "operator",
          "type": "address"
        }
      ],
      "name": "isApprovedForAll",
      "outputs": [
        {
          "internalType": "bool",
          "name": "",
          "type": "bool"
        }
      ],
      "stateMutability": "view",
      "type": "function"
    },
    {
      "inputs": [
        {
          "internalType": "address",
          "name": "to",
          "type": "address"
        },
        {
          "internalType": "string",
          "name": "uri",
          "type": "string"
        }
      ],
      "name": "mint",
      "outputs": [
        {
          "internalType": "uint256",
          "name": "",
          "type": "uint256"
        }
      ],
      "stateMutability": "nonpayable",
      "type": "function"
    },
    {
      "inputs": [],
      "name": "name",
      "outputs": [
        {
          "internalType": "string",
          "name": "",
          "type": "string"
        }
      ],
      "stateMutability": "view",
      "type": "function"
    },
    {
      "inputs": [
        {
          "internalType": "uint256",
          "name": "tokenId",
          "type": "uint256"
        }
      ],
      "name": "ownerOf",
      "outputs": [
        {
          "internalType": "address",
          "name": "",
          "type": "address"
        }
      ],
      "stateMutability": "view",
      "type": "function"
    },
    {
      "inputs": [
        {
          "internalType": "address",
          "name": "from",
          "type": "address"
        },
        {
          "internalType": "address",
          "name": "to",
          "type": "address"
        },
        {
          "internalType": "uint256",
          "name": "tokenId",
          "type": "uint256"
        }
      ],
      "name": "safeTransferFrom",
      "outputs": [],
      "stateMutability": "nonpayable",
      "type": "function"
    },
    {
      "inputs": [
        {
          "internalType": "address",
          "name": "from",
          "type": "address"
        },
        {
          "internalType": "address",
          "name": "to",
          "type": "address"
        },
        {
          "internalType": "uint256",
          "name": "tokenId",
          "type": "uint256"
        },
        {
          "internalType": "bytes",
          "name": "data",
          "type": "bytes"
        }
      ],
      "name": "safeTransferFrom",
      "outputs": [],
      "stateMutability": "nonpayable",
      "type": "function"
    },
    {
      "inputs": [
        {
          "internalType": "address",
          "name": "operator",
          "type": "address"
        },
        {
          "internalType": "bool",
          "name": "approved",
          "type": "bool"
        }
      ],
      "name": "setApprovalForAll",
      "outputs": [],
      "stateMutability": "nonpayable",
      "type": "function"
    },
    {
      "inputs": [
        {
          "internalType": "bytes4",
          "name": "interfaceId",
          "type": "bytes4"
        }
      ],
      "name": "supportsInterface",
      "outputs": [
        {
          "internalType": "bool",
          "name": "",
          "type": "bool"
        }
      ],
      "stateMutability": "view",
      "type": "function"
    },
    {
      "inputs": [],
      "name": "symbol",
      "outputs": [
        {
          "internalType": "string",
          "name": "",
          "type": "string"
        }
      ],
      "stateMutability": "view",
      "type": "function"
    },
    {
      "inputs": [
        {
          "internalType": "uint256",
          "name": "tokenId",
          "type": "uint256"
        }
      ],
      "name": "tokenURI",
      "outputs": [
        {
          "internalType": "string",
          "name": "",
          "type": "string"
        }
      ],
      "stateMutability": "view",
      "type": "function"
    },
    {
      "inputs": [],
      "name": "totalSupply",
      "outputs": [
        {
          "internalType": "uint256",
          "name": "",
          "type": "uint256"
        }
      ],
      "stateMutability": "view",
      "type": "function"
    },
    {
      "inputs": [
        {
          "internalType": "address",
          "name": "from",
          "type": "address"
        },
        {
          "internalType": "address",
          "name": "to",
          "type": "address"
        },
        {
          "internalType": "uint256",
          "name": "tokenId",
          "type": "uint256"
        }
      ],
      "name": "transferFrom",
      "outputs": [],
      "stateMutability": "nonpayable",
      "type": "function"
    }
  ],
  "bytecode": "0x608060405234801562000010575f80fd5b506040518060400160405280601381526020017f44414f204d61726b6574706c616365204e4654000000000000000000000000008152506040518060400160405280600681526020017f44414f4e46540000000000000000000000000000000000000000000000000000815250815f90816200008d919062000314565b5080600190816200009f919062000314565b5050506001600781905550620003f8565b5f81519050919050565b7f4e487b71000000000000000000000000000000000000000000000000000000005f52604160045260245ffd5b7f4e487b71000000000000000000000000000000000000000000000000000000005f52602260045260245ffd5b5f60028204905060018216806200012c57607f821691505b602082108103620001425762000141620000e7565b5b50919050565b5f819050815f5260205f209050919050565b5f6020601f8301049050919050565b5f82821b905092915050565b5f60088302620001a67fffffffffffffffffffffffffffffffffffffffffffffffffffffffffffffffff8262000169565b620001b2868362000169565b95508019841693508086168417925050509392505050565b5f819050919050565b5f819050919050565b5f620001fc620001f6620001f084620001ca565b620001d3565b620001ca565b9050919050565b5f819050919050565b6200021783620001dc565b6200022f620002268262000203565b84845462000175565b825550505050565b5f90565b6200024562000237565b620002528184846200020c565b505050565b5b8181101562000279576200026d5f826200023b565b60018101905062000258565b5050565b601f821115620002c857620002928162000148565b6200029d846200015a565b81016020851015620002ad578190505b620002c5620002bc856200015a565b83018262000257565b50505b505050565b5f82821c905092915050565b5f620002ea5f1984600802620002cd565b1980831691505092915050565b5f620003048383620002d9565b9150826002028217905092915050565b6200031f82620000b0565b67ffffffffffffffff8111156200033b576200033a620000ba565b5b62000347825462000114565b620003548282856200027d565b5f60209050601f8311600181146200038a575f841562000375578287015190505b620003818582620002f7565b865550620003f0565b601f1984166200039a8662000148565b5f5b82811015620003c3578489015182556001820191506020850194506020810190506200039c565b86831015620003e35784890151620003df601f891682620002d9565b8355505b6001600288020188555050505b505050505050565b6124b180620004065f395ff3fe608060405234801561000f575f80fd5b50600436106100fe575f3560e01c80636352211e11610095578063b88d4fde11610064578063b88d4fde146102bc578063c87b56dd146102d8578063d0def52114610308578063e985e9c514610338576100fe565b80636352211e1461022257806370a082311461025257806395d89b4114610282578063a22cb465146102a0576100fe565b806318160ddd116100d157806318160ddd1461019c57806323b872dd146101ba57806342842e0e146101d6578063510b5158146101f2576100fe565b806301ffc9a71461010257806306fdde0314610132578063081812fc14610150578063095ea7b314610180575b5f80fd5b61011c60048036038101906101179190611937565b610368565b604051610129919061197c565b60405180910390f35b61013a6103c8565b6040516101479190611a1f565b60405180910390f35b61016a60048036038101906101659190611a72565b610457565b6040516101779190611adc565b60405180910390f35b61019a60048036038101906101959190611b1f565b610472565b005b6101a4610488565b6040516101b19190611b6c565b60405180910390f35b6101d460048036038101906101cf9190611b85565b61049d565b005b6101f060048036038101906101eb9190611b85565b61059c565b005b61020c60048036038101906102079190611a72565b6105bb565b6040516102199190611adc565b60405180910390f35b61023c60048036038101906102379190611a72565b6105eb565b6040516102499190611adc565b60405180910390f35b61026c60048036038101906102679190611bd5565b6105fc565b6040516102799190611b6c565b60405180910390f35b61028a6106b2565b6040516102979190611a1f565b60405180910390f35b6102ba60048036038101906102b59190611c2a565b610742565b005b6102d660048036038101906102d19190611d94565b610758565b005b6102f260048036038101906102ed9190611a72565b61077d565b6040516102ff9190611a1f565b60405180910390f35b610322600480360381019061031d9190611eb2565b610888565b60405161032f9190611b6c565b60405180910390f35b610352600480360381019061034d9190611f0c565b610962565b60405161035f919061197c565b60405180910390f35b5f634906490660e01b7bffffffffffffffffffffffffffffffffffffffffffffffffffffffff1916827bffffffffffffffffffffffffffffffffffffffffffffffffffffffff191614806103c157506103c0826109f0565b5b9050919050565b60605f80546103d690611f77565b80601f016020809104026020016040519081016040528092919081815260200182805461040290611f77565b801561044d5780601f106104245761010080835404028352916020019161044d565b820191905f5260205f20905b81548152906001019060200180831161043057829003601f168201915b5050505050905090565b5f61046182610ad1565b5061046b82610b57565b9050919050565b610484828261047f610b90565b610b97565b5050565b5f60016007546104989190611fd4565b905090565b5f73ffffffffffffffffffffffffffffffffffffffff168273ffffffffffffffffffffffffffffffffffffffff160361050d575f6040517f64a0ae920000000000000000000000000000000000000000000000000000000081526004016105049190611adc565b60405180910390fd5b5f610520838361051b610b90565b610ba9565b90508373ffffffffffffffffffffffffffffffffffffffff168173ffffffffffffffffffffffffffffffffffffffff1614610596578382826040517f64283d7b00000000000000000000000000000000000000000000000000000000815260040161058d93929190612007565b60405180910390fd5b50505050565b6105b683838360405180602001604052805f815250610758565b505050565b6008602052805f5260405f205f915054906101000a900473ffffffffffffffffffffffffffffffffffffffff1681565b5f6105f582610ad1565b9050919050565b5f8073ffffffffffffffffffffffffffffffffffffffff168273ffffffffffffffffffffffffffffffffffffffff160361066d575f6040517f89c62b640000000000000000000000000000000000000000000000000000000081526004016106649190611adc565b60405180910390fd5b60035f8373ffffffffffffffffffffffffffffffffffffffff1673ffffffffffffffffffffffffffffffffffffffff1681526020019081526020015f20549050919050565b6060600180546106c190611f77565b80601f01602080910402602001604051908101604052809291908181526020018280546106ed90611f77565b80156107385780601f1061070f57610100808354040283529160200191610738565b820191905f5260205f20905b81548152906001019060200180831161071b57829003601f168201915b5050505050905090565b61075461074d610b90565b8383610db4565b5050565b61076384848461049d565b61077761076e610b90565b85858585610f1d565b50505050565b606061078882610ad1565b505f60065f8481526020019081526020015f2080546107a690611f77565b80601f01602080910402602001604051908101604052809291908181526020018280546107d290611f77565b801561081d5780601f106107f45761010080835404028352916020019161081d565b820191905f5260205f20905b81548152906001019060200180831161080057829003601f168201915b505050505090505f61082d6110c9565b90505f815103610841578192505050610883565b5f8251111561087557808260405160200161085d929190612076565b60405160208183030381529060405292505050610883565b61087e846110df565b925050505b919050565b5f80600754905060075f8154809291906108a190612099565b91905055506108b08482611145565b6108ba8184611162565b3360085f8381526020019081526020015f205f6101000a81548173ffffffffffffffffffffffffffffffffffffffff021916908373ffffffffffffffffffffffffffffffffffffffff1602179055503373ffffffffffffffffffffffffffffffffffffffff16817f06becd955c918828f6e985541acbf49cc842c9e9bd569fffc7698e721ef13575856040516109509190611a1f565b60405180910390a38091505092915050565b5f60055f8473ffffffffffffffffffffffffffffffffffffffff1673ffffffffffffffffffffffffffffffffffffffff1681526020019081526020015f205f8373ffffffffffffffffffffffffffffffffffffffff1673ffffffffffffffffffffffffffffffffffffffff1681526020019081526020015f205f9054906101000a900460ff16905092915050565b5f7f80ac58cd000000000000000000000000000000000000000000000000000000007bffffffffffffffffffffffffffffffffffffffffffffffffffffffff1916827bffffffffffffffffffffffffffffffffffffffffffffffffffffffff19161480610aba57507f5b5e139f000000000000000000000000000000000000000000000000000000007bffffffffffffffffffffffffffffffffffffffffffffffffffffffff1916827bffffffffffffffffffffffffffffffffffffffffffffffffffffffff1916145b80610aca5750610ac9826111bc565b5b9050919050565b5f80610adc83611225565b90505f73ffffffffffffffffffffffffffffffffffffffff168173ffffffffffffffffffffffffffffffffffffffff1603610b4e57826040517f7e273289000000000000000000000000000000000000000000000000000000008152600401610b459190611b6c565b60405180910390fd5b80915050919050565b5f60045f8381526020019081526020015f205f9054906101000a900473ffffffffffffffffffffffffffffffffffffffff169050919050565b5f33905090565b610ba4838383600161125e565b505050565b5f80610bb484611225565b90505f73ffffffffffffffffffffffffffffffffffffffff168373ffffffffffffffffffffffffffffffffffffffff1614610bf557610bf481848661141d565b5b5f73ffffffffffffffffffffffffffffffffffffffff168173ffffffffffffffffffffffffffffffffffffffff1614610c8057610c345f855f8061125e565b600160035f8373ffffffffffffffffffffffffffffffffffffffff1673ffffffffffffffffffffffffffffffffffffffff1681526020019081526020015f205f82825403925050819055505b5f73ffffffffffffffffffffffffffffffffffffffff168573ffffffffffffffffffffffffffffffffffffffff1614610cff57600160035f8773ffffffffffffffffffffffffffffffffffffffff1673ffffffffffffffffffffffffffffffffffffffff1681526020019081526020015f205f82825401925050819055505b8460025f8681526020019081526020015f205f6101000a81548173ffffffffffffffffffffffffffffffffffffffff021916908373ffffffffffffffffffffffffffffffffffffffff160217905550838573ffffffffffffffffffffffffffffffffffffffff168273ffffffffffffffffffffffffffffffffffffffff167fddf252ad1be2c89b69c2b068fc378daa952ba7f163c4a11628f55a4df523b3ef60405160405180910390a4809150509392505050565b5f73ffffffffffffffffffffffffffffffffffffffff168273ffffffffffffffffffffffffffffffffffffffff1603610e2457816040517f5b08ba18000000000000000000000000000000000000000000000000000000008152600401610e1b9190611adc565b60405180910390fd5b8060055f8573ffffffffffffffffffffffffffffffffffffffff1673ffffffffffffffffffffffffffffffffffffffff1681526020019081526020015f205f8473ffffffffffffffffffffffffffffffffffffffff1673ffffffffffffffffffffffffffffffffffffffff1681526020019081526020015f205f6101000a81548160ff0219169083151502179055508173ffffffffffffffffffffffffffffffffffffffff168373ffffffffffffffffffffffffffffffffffffffff167f17307eab39ab6107e8899845ad3d59bd9653f200f220920489ca2b5937696c3183604051610f10919061197c565b60405180910390a3505050565b5f8373ffffffffffffffffffffffffffffffffffffffff163b11156110c2578273ffffffffffffffffffffffffffffffffffffffff1663150b7a02868685856040518563ffffffff1660e01b8152600401610f7b9493929190612132565b6020604051808303815f875af1925050508015610fb657506040513d601f19601f82011682018060405250810190610fb39190612190565b60015b611037573d805f8114610fe4576040519150601f19603f3d011682016040523d82523d5f602084013e610fe9565b606091505b505f81510361102f57836040517f64a0ae920000000000000000000000000000000000000000000000000000000081526004016110269190611adc565b60405180910390fd5b805160208201fd5b63150b7a0260e01b7bffffffffffffffffffffffffffffffffffffffffffffffffffffffff1916817bffffffffffffffffffffffffffffffffffffffffffffffffffffffff1916146110c057836040517f64a0ae920000000000000000000000000000000000000000000000000000000081526004016110b79190611adc565b60405180910390fd5b505b5050505050565b606060405180602001604052805f815250905090565b60606110ea82610ad1565b505f6110f46110c9565b90505f8151116111125760405180602001604052805f81525061113d565b8061111c846114e0565b60405160200161112d929190612076565b6040516020818303038152906040525b915050919050565b61115e828260405180602001604052805f8152506115aa565b5050565b8060065f8481526020019081526020015f2090816111809190612358565b507ff8e1a15aba9398e019f0b49df1a4fde98ee17ae345cb5f6b5e2c27f5033e8ce7826040516111b09190611b6c565b60405180910390a15050565b5f7f01ffc9a7000000000000000000000000000000000000000000000000000000007bffffffffffffffffffffffffffffffffffffffffffffffffffffffff1916827bffffffffffffffffffffffffffffffffffffffffffffffffffffffff1916149050919050565b5f60025f8381526020019081526020015f205f9054906101000a900473ffffffffffffffffffffffffffffffffffffffff169050919050565b808061129657505f73ffffffffffffffffffffffffffffffffffffffff168273ffffffffffffffffffffffffffffffffffffffff1614155b156113c8575f6112a584610ad1565b90505f73ffffffffffffffffffffffffffffffffffffffff168373ffffffffffffffffffffffffffffffffffffffff161415801561130f57508273ffffffffffffffffffffffffffffffffffffffff168173ffffffffffffffffffffffffffffffffffffffff1614155b801561132257506113208184610962565b155b1561136457826040517fa9fbf51f00000000000000000000000000000000000000000000000000000000815260040161135b9190611adc565b60405180910390fd5b81156113c657838573ffffffffffffffffffffffffffffffffffffffff168273ffffffffffffffffffffffffffffffffffffffff167f8c5be1e5ebec7d5bd14f71427d1e84f3dd0314c0f7b2291e5b200ac8c7c3b92560405160405180910390a45b505b8360045f8581526020019081526020015f205f6101000a81548173ffffffffffffffffffffffffffffffffffffffff021916908373ffffffffffffffffffffffffffffffffffffffff16021790555050505050565b6114288383836115cd565b6114db575f73ffffffffffffffffffffffffffffffffffffffff168373ffffffffffffffffffffffffffffffffffffffff160361149c57806040517f7e2732890000000000000000000000000000000000000000000000000000000081526004016114939190611b6c565b60405180910390fd5b81816040517f177e802f0000000000000000000000000000000000000000000000000000000081526004016114d2929190612427565b60405180910390fd5b505050565b60605f60016114ee8461168d565b0190505f8167ffffffffffffffff81111561150c5761150b611c70565b5b6040519080825280601f01601f19166020018201604052801561153e5781602001600182028036833780820191505090505b5090505f82602083010190505b60011561159f578080600190039150507f3031323334353637383961626364656600000000000000000000000000000000600a86061a8153600a85816115945761159361244e565b5b0494505f850361154b575b819350505050919050565b6115b483836117de565b6115c86115bf610b90565b5f858585610f1d565b505050565b5f8073ffffffffffffffffffffffffffffffffffffffff168373ffffffffffffffffffffffffffffffffffffffff161415801561168457508273ffffffffffffffffffffffffffffffffffffffff168473ffffffffffffffffffffffffffffffffffffffff16148061164557506116448484610962565b5b8061168357508273ffffffffffffffffffffffffffffffffffffffff1661166b83610b57565b73ffffffffffffffffffffffffffffffffffffffff16145b5b90509392505050565b5f805f90507a184f03e93ff9f4daa797ed6e38ed64bf6a1f01000000000000000083106116e9577a184f03e93ff9f4daa797ed6e38ed64bf6a1f01000000000000000083816116df576116de61244e565b5b0492506040810190505b6d04ee2d6d415b85acef81000000008310611726576d04ee2d6d415b85acef8100000000838161171c5761171b61244e565b5b0492506020810190505b662386f26fc10000831061175557662386f26fc10000838161174b5761174a61244e565b5b0492506010810190505b6305f5e100831061177e576305f5e10083816117745761177361244e565b5b0492506008810190505b61271083106117a35761271083816117995761179861244e565b5b0492506004810190505b606483106117c657606483816117bc576117bb61244e565b5b0492506002810190505b600a83106117d5576001810190505b80915050919050565b5f73ffffffffffffffffffffffffffffffffffffffff168273ffffffffffffffffffffffffffffffffffffffff160361184e575f6040517f64a0ae920000000000000000000000000000000000000000000000000000000081526004016118459190611adc565b60405180910390fd5b5f61185a83835f610ba9565b90505f73ffffffffffffffffffffffffffffffffffffffff168173ffffffffffffffffffffffffffffffffffffffff16146118cc575f6040517f73c6ac6e0000000000000000000000000000000000000000000000000000000081526004016118c39190611adc565b60405180910390fd5b505050565b5f604051905090565b5f80fd5b5f80fd5b5f7fffffffff0000000000000000000000000000000000000000000000000000000082169050919050565b611916816118e2565b8114611920575f80fd5b50565b5f813590506119318161190d565b92915050565b5f6020828403121561194c5761194b6118da565b5b5f61195984828501611923565b91505092915050565b5f8115159050919050565b61197681611962565b82525050565b5f60208201905061198f5f83018461196d565b92915050565b5f81519050919050565b5f82825260208201905092915050565b5f5b838110156119cc5780820151818401526020810190506119b1565b5f8484015250505050565b5f601f19601f8301169050919050565b5f6119f182611995565b6119fb818561199f565b9350611a0b8185602086016119af565b611a14816119d7565b840191505092915050565b5f6020820190508181035f830152611a3781846119e7565b905092915050565b5f819050919050565b611a5181611a3f565b8114611a5b575f80fd5b50565b5f81359050611a6c81611a48565b92915050565b5f60208284031215611a8757611a866118da565b5b5f611a9484828501611a5e565b91505092915050565b5f73ffffffffffffffffffffffffffffffffffffffff82169050919050565b5f611ac682611a9d565b9050919050565b611ad681611abc565b82525050565b5f602082019050611aef5f830184611acd565b92915050565b611afe81611abc565b8114611b08575f80fd5b50565b5f81359050611b1981611af5565b92915050565b5f8060408385031215611b3557611b346118da565b5b5f611b4285828601611b0b565b9250506020611b5385828601611a5e565b9150509250929050565b611b6681611a3f565b82525050565b5f602082019050611b7f5f830184611b5d565b92915050565b5f805f60608486031215611b9c57611b9b6118da565b5b5f611ba986828701611b0b565b9350506020611bba86828701611b0b565b9250506040611bcb86828701611a5e565b9150509250925092565b5f60208284031215611bea57611be96118da565b5b5f611bf784828501611b0b565b91505092915050565b611c0981611962565b8114611c13575f80fd5b50565b5f81359050611c2481611c00565b92915050565b5f8060408385031215611c4057611c3f6118da565b5b5f611c4d85828601611b0b565b9250506020611c5e85828601611c16565b9150509250929050565b5f80fd5b5f80fd5b7f4e487b71000000000000000000000000000000000000000000000000000000005f52604160045260245ffd5b611ca6826119d7565b810181811067ffffffffffffffff82111715611cc557611cc4611c70565b5b80604052505050565b5f611cd76118d1565b9050611ce38282611c9d565b919050565b5f67ffffffffffffffff821115611d0257611d01611c70565b5b611d0b826119d7565b9050602081019050919050565b828183375f83830152505050565b5f611d38611d3384611ce8565b611cce565b905082815260208101848484011115611d5457611d53611c6c565b5b611d5f848285611d18565b509392505050565b5f82601f830112611d7b57611d7a611c68565b5b8135611d8b848260208601611d26565b91505092915050565b5f805f8060808587031215611dac57611dab6118da565b5b5f611db987828801611b0b565b9450506020611dca87828801611b0b565b9350506040611ddb87828801611a5e565b925050606085013567ffffffffffffffff811115611dfc57611dfb6118de565b5b611e0887828801611d67565b91505092959194509250565b5f67ffffffffffffffff821115611e2e57611e2d611c70565b5b611e37826119d7565b9050602081019050919050565b5f611e56611e5184611e14565b611cce565b905082815260208101848484011115611e7257611e71611c6c565b5b611e7d848285611d18565b509392505050565b5f82601f830112611e9957611e98611c68565b5b8135611ea9848260208601611e44565b91505092915050565b5f8060408385031215611ec857611ec76118da565b5b5f611ed585828601611b0b565b925050602083013567ffffffffffffffff811115611ef657611ef56118de565b5b611f0285828601611e85565b9150509250929050565b5f8060408385031215611f2257611f216118da565b5b5f611f2f85828601611b0b565b9250506020611f4085828601611b0b565b9150509250929050565b7f4e487b71000000000000000000000000000000000000000000000000000000005f52602260045260245ffd5b5f6002820490506001821680611f8e57607f821691505b602082108103611fa157611fa0611f4a565b5b50919050565b7f4e487b71000000000000000000000000000000000000000000000000000000005f52601160045260245ffd5b5f611fde82611a3f565b9150611fe983611a3f565b925082820390508181111561200157612000611fa7565b5b92915050565b5f60608201905061201a5f830186611acd565b6120276020830185611b5d565b6120346040830184611acd565b949350505050565b5f81905092915050565b5f61205082611995565b61205a818561203c565b935061206a8185602086016119af565b80840191505092915050565b5f6120818285612046565b915061208d8284612046565b91508190509392505050565b5f6120a382611a3f565b91507fffffffffffffffffffffffffffffffffffffffffffffffffffffffffffffffff82036120d5576120d4611fa7565b5b600182019050919050565b5f81519050919050565b5f82825260208201905092915050565b5f612104826120e0565b61210e81856120ea565b935061211e8185602086016119af565b612127816119d7565b840191505092915050565b5f6080820190506121455f830187611acd565b6121526020830186611acd565b61215f6040830185611b5d565b818103606083015261217181846120fa565b905095945050505050565b5f8151905061218a8161190d565b92915050565b5f602082840312156121a5576121a46118da565b5b5f6121b28482850161217c565b91505092915050565b5f819050815f5260205f209050919050565b5f6020601f8301049050919050565b5f82821b905092915050565b5f600883026122177fffffffffffffffffffffffffffffffffffffffffffffffffffffffffffffffff826121dc565b61222186836121dc565b95508019841693508086168417925050509392505050565b5f819050919050565b5f61225c61225761225284611a3f565b612239565b611a3f565b9050919050565b5f819050919050565b61227583612242565b61228961228182612263565b8484546121e8565b825550505050565b5f90565b61229d612291565b6122a881848461226c565b505050565b5b818110156122cb576122c05f82612295565b6001810190506122ae565b5050565b601f821115612310576122e1816121bb565b6122ea846121cd565b810160208510156122f9578190505b61230d612305856121cd565b8301826122ad565b50505b505050565b5f82821c905092915050565b5f6123305f1984600802612315565b1980831691505092915050565b5f6123488383612321565b9150826002028217905092915050565b61236182611995565b67ffffffffffffffff81111561237a57612379611c70565b5b6123848254611f77565b61238f8282856122cf565b5f60209050601f8311600181146123c0575f84156123ae578287015190505b6123b8858261233d565b86555061241f565b601f1984166123ce866121bb565b5f5b828110156123f5578489015182556001820191506020850194506020810190506123d0565b86831015612412578489015161240e601f891682612321565b8355505b6001600288020188555050505b505050505050565b5f60408201905061243a5f830185611acd565b6124476020830184611b5d565b9392505050565b7f4e487b71000000000000000000000000000000000000000000000000000000005f52601260045260245ffdfea2646970667358221220f127cfa34cdc2404122e7d266d982009f411ad508ed77e27a1f55bee3bda207e64736f6c63430008140033",
  "linkReferences": {},
  "deployedLinkReferences": {},
  "immutableReferences": {},
  "inputSourceName": "project/contracts/DAOMarketplaceNFT.sol",
  "buildInfoId": "solc-0_8_20-4746c95eae2ef5eb526ac3c7aba23926d991fe8c"
}