{
  "_format": "hh-sol-artifact-1",
  "contractName": "DAOMarketplaceNFT",
  "sourceName": "contracts/DAOMarketplaceNFT.sol",
  "abi": [
    {
      "inputs": [],
      "stateMutability": "nonpayable",
      "type": "constructor"
    },
    {
      "inputs": [
        {
          "internalType": "address",
          "name": "sender",
          "type": "address"
        },
        {
          "internalType": "uint256",
          "name": "tokenId",
          "type": "uint256"
        },
        {
          "internalType": "address",
          "name": "owner",
          "type": "address"
        }
      ],
      "name": "ERC721IncorrectOwner",
      "type": "error"
    },
    {
      "inputs": [
        {
          "internalType": "address",
          "name": "operator",
          "type": "address"
        },
        {
          "internalType": "uint256",
          "name": "tokenId",
          "type": "uint256"
        }
      ],
      "name": "ERC721InsufficientApproval",
      "type": "error"
    },
    {
      "inputs": [
        {
          "internalType": "address",
          "name": "approver",
          "type": "address"
        }
      ],
      "name": "ERC721InvalidApprover",
      "type": "error"
    },
    {
      "inputs": [
        {
          "internalType": "address",
          "name": "operator",
          "type": "address"
        }
      ],
      "name": "ERC721InvalidOperator",
      "type": "error"
    },
    {
      "inputs": [
        {
          "internalType": "address",
          "name": "owner",
          "type": "address"
        }
      ],
      "name": "ERC721InvalidOwner",
      "type": "error"
    },
    {
      "inputs": [
        {
          "internalType": "address",
          "name": "receiver",
          "type": "address"
        }
      ],
      "name": "ERC721InvalidReceiver",
      "type": "error"
    },
    {
      "inputs": [
        {
          "internalType": "address",
          "name": "sender",
          "type": "address"
        }
      ],
      "name": "ERC721InvalidSender",
      "type": "error"
    },
    {
      "inputs": [
        {
          "internalType": "uint256",
          "name": "tokenId",
          "type": "uint256"
        }
      ],
      "name": "ERC721NonexistentToken",
      "type": "error"
    },
    {
      "anonymous": false,
      "inputs": [
        {
          "indexed": true,
          "internalType": "address",
          "name": "owner",
          "type": "address"
        },
        {
          "indexed": true,
          "internalType": "address",
          "name": "approved",
          "type": "address"
        },
        {
          "indexed": true,
          "internalType": "uint256",
          "name": "tokenId",
          "type": "uint256"
        }
      ],
      "name": "Approval",
      "type": "event"
    },
    {
      "anonymous": false,
      "inputs": [
        {
          "indexed": true,
          "internalType": "address",
          "name": "owner",
          "type": "address"
        },
        {
          "indexed": true,
          "internalType": "address",
          "name": "operator",
          "type": "address"
        },
        {
          "indexed": false,
          "internalType": "bool",
          "name": "approved",
          "type": "bool"
        }
      ],
      "name": "ApprovalForAll",
      "type": "event"
    },
    {
      "anonymous": false,
      "inputs": [
        {
          "indexed": false,
          "internalType": "uint256",
          "name": "_fromTokenId",
          "type": "uint256"
        },
        {
          "indexed": false,
          "internalType": "uint256",
          "name": "_toTokenId",
          "type": "uint256"
        }
      ],
      "name": "BatchMetadataUpdate",
      "type": "event"
    },
    {
      "anonymous": false,
      "inputs": [
        {
          "indexed": false,
          "internalType": "uint256",
          "name": "_tokenId",
          "type": "uint256"
        }
      ],
      "name": "MetadataUpdate",
      "type": "event"
    },
    {
      "anonymous": false,
      "inputs": [
        {
          "indexed": true,
          "internalType": "uint256",
          "name": "tokenId",
          "type": "uint256"
        },
        {
          "indexed": true,
          "internalType": "address",
          "name": "creator",
          "type": "address"
        },
        {
          "indexed": false,
          "internalType": "string",
          "name": "tokenURI",
          "type": "string"
        }
      ],
      "name": "NFTMinted",
      "type": "event"
    },
    {
      "anonymous": false,
      "inputs": [
        {
          "indexed": true,
          "internalType": "address",
          "name": "from",
          "type": "address"
        },
        {
          "indexed": true,
          "internalType": "address",
          "name": "to",
          "type": "address"
        },
        {
          "indexed": true,
          "internalType": "uint256",
          "name": "tokenId",
          "type": "uint256"
        }
      ],
      "name": "Transfer",
      "type": "event"
    },
    {
      "anonymous": false,
      "inputs": [
        {
          "indexed": true,
          "internalType": "uint256",
          "name": "tokenId",
          "type": "uint256"
        },
        {
          "indexed": true,
          "internalType": "address",
          "name": "user",
          "type": "address"
        },
        {
          "indexed": false,
          "internalType": "uint64",
          "name": "expires",
          "type": "uint64"
        }
      ],
      "name": "UpdateUser",
      "type": "event"
    },
    {
      "inputs": [
        {
          "internalType": "address",
          "name": "to",
          "type": "address"
        },
        {
          "internalType": "uint256",
          "name": "tokenId",
          "type": "uint256"
        }
      ],
      "name": "approve",
      "outputs": [],
      "stateMutability": "nonpayable",
      "type": "function"
    },
    {
      "inputs": [
        {
          "internalType": "address",
          "name": "owner",
          "type": "address"
        }
      ],
      "name": "balanceOf",
      "outputs": [
        {
          "internalType": "uint256",
          "name": "",
          "type": "uint256"
        }
      ],
      "stateMutability": "view",
      "type": "function"
    },
    {
      "inputs": [
        {
          "internalType": "uint256",
          "name": "",
          "type": "uint256"
        }
      ],
      "name": "creator",
      "outputs": [
        {
          "internalType": "address",
          "name": "",
          "type": "address"
        }
      ],
      "stateMutability": "view",
      "type": "function"
    },
    {
      "inputs": [
        {
          "internalType": "uint256",
          "name": "tokenId",
          "type": "uint256"
        }
      ],
      "name": "getApproved",
      "outputs": [
        {
          "internalType": "address",
          "name": "",
          "type": "address"
        }
      ],
      "stateMutability": "view",
      "type": "function"
    },
    {
      "inputs": [
        {
          "internalType": "address",
          "name": "owner",
          "type": "address"
        },
        {
          "internalType": "address",
          "name": "operator",
          "type": "address"
        }
      ],
      "name": "isApprovedForAll",
      "outputs": [
        {
          "internalType": "bool",
          "name": "",
          "type": "bool"
        }
      ],
      "stateMutability": "view",
      "type": "function"
    },
    {
      "inputs": [
        {
          "internalType": "address",
          "name": "to",
          "type": "address"
        },
        {
          "internalType": "string",
          "name": "uri",
          "type": "string"
        }
      ],
      "name": "mint",
      "outputs": [
        {
          "internalType": "uint256",
          "name": "",
          "type": "uint256"
        }
      ],
      "stateMutability": "nonpayable",
      "type": "function"
    },
    {
      "inputs": [],
      "name": "name",
      "outputs": [
        {
          "internalType": "string",
          "name": "",
          "type": "string"
        }
      ],
      "stateMutability": "view",
      "type": "function"
    },
    {
      "inputs": [
        {
          "internalType": "uint256",
          "name": "tokenId",
          "type": "uint256"
        }
      ],
      "name": "ownerOf",
      "outputs": [
        {
          "internalType": "address",
          "name": "",
          "type": "address"
        }
      ],
      "stateMutability": "view",
      "type": "function"
    },
    {
      "inputs": [
        {
          "internalType": "address",
          "name": "from",
          "type": "address"
        },
        {
          "internalType": "address",
          "name": "to",
          "type": "address"
        },
        {
          "internalType": "uint256",
          "name": "tokenId",
          "type": "uint256"
        }
      ],
      "name": "safeTransferFrom",
      "outputs": [],
      "stateMutability": "nonpayable",
      "type": "function"
    },
    {
      "inputs": [
        {
          "internalType": "address",
          "name": "from",
          "type": "address"
        },
        {
          "internalType": "address",
          "name": "to",
          "type": "address"
        },
        {
          "internalType": "uint256",
          "name": "tokenId",
          "type": "uint256"
        },
        {
          "internalType": "bytes",
          "name": "data",
          "type": "bytes"
        }
      ],
      "name": "safeTransferFrom",
      "outputs": [],
      "stateMutability": "nonpayable",
      "type": "function"
    },
    {
      "inputs": [
        {
          "internalType": "address",
          "name": "operator",
          "type": "address"
        },
        {
          "internalType": "bool",
          "name": "approved",
          "type": "bool"
        }
      ],
      "name": "setApprovalForAll",
      "outputs": [],
      "stateMutability": "nonpayable",
      "type": "function"
    },
    {
      "inputs": [
        {
          "internalType": "uint256",
          "name": "tokenId",
          "type": "uint256"
        },
        {
          "internalType": "address",
          "name": "user",
          "type": "address"
        },
        {
          "internalType": "uint64",
          "name": "expires",
          "type": "uint64"
        }
      ],
      "name": "setUser",
      "outputs": [],
      "stateMutability": "nonpayable",
      "type": "function"
    },
    {
      "inputs": [
        {
          "internalType": "bytes4",
          "name": "interfaceId",
          "type": "bytes4"
        }
      ],
      "name": "supportsInterface",
      "outputs": [
        {
          "internalType": "bool",
          "name": "",
          "type": "bool"
        }
      ],
      "stateMutability": "view",
      "type": "function"
    },
    {
      "inputs": [],
      "name": "symbol",
      "outputs": [
        {
          "internalType": "string",
          "name": "",
          "type": "string"
        }
      ],
      "stateMutability": "view",
      "type": "function"
    },
    {
      "inputs": [
        {
          "internalType": "uint256",
          "name": "tokenId",
          "type": "uint256"
        }
      ],
      "name": "tokenURI",
      "outputs": [
        {
          "internalType": "string",
          "name": "",
          "type": "string"
        }
      ],
      "stateMutability": "view",
      "type": "function"
    },
    {
      "inputs": [],
      "name": "totalSupply",
      "outputs": [
        {
          "internalType": "uint256",
          "name": "",
          "type": "uint256"
        }
      ],
      "stateMutability": "view",
      "type": "function"
    },
    {
      "inputs": [
        {
          "internalType": "address",
          "name": "from",
          "type": "address"
        },
        {
          "internalType": "address",
          "name": "to",
          "type": "address"
        },
        {
          "internalType": "uint256",
          "name": "tokenId",
          "type": "uint256"
        }
      ],
      "name": "transferFrom",
      "outputs": [],
      "stateMutability": "nonpayable",
      "type": "function"
    },
    {
      "inputs": [
        {
          "internalType": "uint256",
          "name": "tokenId",
          "type": "uint256"
        }
      ],
      "name": "userExpires",
      "outputs": [
        {
          "internalType": "uint64",
          "name": "",
          "type": "uint64"
        }
      ],
      "stateMutability": "view",
      "type": "function"
    },
    {
      "inputs": [
        {
          "internalType": "uint256",
          "name": "tokenId",
          "type": "uint256"
        }
      ],
      "name": "userOf",
      "outputs": [
        {
          "internalType": "address",
          "name": "",
          "type": "address"
        }
      ],
      "stateMutability": "view",
      "type": "function"
    }
  ],
  "bytecode": "0x60806040523480156200001157600080fd5b506040518060400160405280601381526020017f44414f204d61726b6574706c616365204e4654000000000000000000000000008152506040518060400160405280600681526020017f44414f4e4654000000000000000000000000000000000000000000000000000081525081600090816200008f91906200032c565b508060019081620000a191906200032c565b505050600160078190555062000413565b600081519050919050565b7f4e487b7100000000000000000000000000000000000000000000000000000000600052604160045260246000fd5b7f4e487b7100000000000000000000000000000000000000000000000000000000600052602260045260246000fd5b600060028204905060018216806200013457607f821691505b6020821081036200014a5762000149620000ec565b5b50919050565b60008190508160005260206000209050919050565b60006020601f8301049050919050565b600082821b905092915050565b600060088302620001b47fffffffffffffffffffffffffffffffffffffffffffffffffffffffffffffffff8262000175565b620001c0868362000175565b95508019841693508086168417925050509392505050565b6000819050919050565b6000819050919050565b60006200020d620002076200020184620001d8565b620001e2565b620001d8565b9050919050565b6000819050919050565b6200022983620001ec565b62000241620002388262000214565b84845462000182565b825550505050565b600090565b6200025862000249565b620002658184846200021e565b505050565b5b818110156200028d57620002816000826200024e565b6001810190506200026b565b5050565b601f821115620002dc57620002a68162000150565b620002b18462000165565b81016020851015620002c1578190505b620002d9620002d08562000165565b8301826200026a565b50505b505050565b600082821c905092915050565b60006200030160001984600802620002e1565b1980831691505092915050565b60006200031c8383620002ee565b9150826002028217905092915050565b6200033782620000b2565b67ffffffffffffffff811115620003535762000352620000bd565b5b6200035f82546200011b565b6200036c82828562000291565b600060209050601f831160018114620003a457600084156200038f578287015190505b6200039b85826200030e565b8655506200040b565b601f198416620003b48662000150565b60005b82811015620003de57848901518255600182019150602085019450602081019050620003b7565b86831015620003fe5784890151620003fa601f891682620002ee565b8355505b6001600288020188555050505b505050505050565b6129d180620004236000396000f3fe608060405234801561001057600080fd5b50600436106101215760003560e01c806370a08231116100ad578063c2f1f14a11610071578063c2f1f14a1461032c578063c87b56dd1461035c578063d0def5211461038c578063e030565e146103bc578063e985e9c5146103d857610121565b806370a08231146102765780638fc88c48146102a657806395d89b41146102d6578063a22cb465146102f4578063b88d4fde1461031057610121565b806318160ddd116100f457806318160ddd146101c057806323b872dd146101de57806342842e0e146101fa578063510b5158146102165780636352211e1461024657610121565b806301ffc9a71461012657806306fdde0314610156578063081812fc14610174578063095ea7b3146101a4575b600080fd5b610140600480360381019061013b9190611ca6565b610408565b60405161014d9190611cee565b60405180910390f35b61015e610482565b60405161016b9190611d99565b60405180910390f35b61018e60048036038101906101899190611df1565b610514565b60405161019b9190611e5f565b60405180910390f35b6101be60048036038101906101b99190611ea6565b610530565b005b6101c8610546565b6040516101d59190611ef5565b60405180910390f35b6101f860048036038101906101f39190611f10565b61055c565b005b610214600480360381019061020f9190611f10565b61065e565b005b610230600480360381019061022b9190611df1565b61067e565b60405161023d9190611e5f565b60405180910390f35b610260600480360381019061025b9190611df1565b6106b1565b60405161026d9190611e5f565b60405180910390f35b610290600480360381019061028b9190611f63565b6106c3565b60405161029d9190611ef5565b60405180910390f35b6102c060048036038101906102bb9190611df1565b61077d565b6040516102cd9190611fb3565b60405180910390f35b6102de6107b1565b6040516102eb9190611d99565b60405180910390f35b61030e60048036038101906103099190611ffa565b610843565b005b61032a6004803603810190610325919061216f565b610859565b005b61034660048036038101906103419190611df1565b61087e565b6040516103539190611e5f565b60405180910390f35b61037660048036038101906103719190611df1565b610903565b6040516103839190611d99565b60405180910390f35b6103a660048036038101906103a19190612293565b610a16565b6040516103b39190611ef5565b60405180910390f35b6103d660048036038101906103d1919061231b565b610af5565b005b6103f260048036038101906103ed919061236e565b610c21565b6040516103ff9190611cee565b60405180910390f35b60007fad092b5c000000000000000000000000000000000000000000000000000000007bffffffffffffffffffffffffffffffffffffffffffffffffffffffff1916827bffffffffffffffffffffffffffffffffffffffffffffffffffffffff1916148061047b575061047a82610cb5565b5b9050919050565b606060008054610491906123dd565b80601f01602080910402602001604051908101604052809291908181526020018280546104bd906123dd565b801561050a5780601f106104df5761010080835404028352916020019161050a565b820191906000526020600020905b8154815290600101906020018083116104ed57829003601f168201915b5050505050905090565b600061051f82610d16565b5061052982610d9e565b9050919050565b610542828261053d610ddb565b610de3565b5050565b60006001600754610557919061243d565b905090565b600073ffffffffffffffffffffffffffffffffffffffff168273ffffffffffffffffffffffffffffffffffffffff16036105ce5760006040517f64a0ae920000000000000000000000000000000000000000000000000000000081526004016105c59190611e5f565b60405180910390fd5b60006105e283836105dd610ddb565b610df5565b90508373ffffffffffffffffffffffffffffffffffffffff168173ffffffffffffffffffffffffffffffffffffffff1614610658578382826040517f64283d7b00000000000000000000000000000000000000000000000000000000815260040161064f93929190612471565b60405180910390fd5b50505050565b61067983838360405180602001604052806000815250610859565b505050565b60096020528060005260406000206000915054906101000a900473ffffffffffffffffffffffffffffffffffffffff1681565b60006106bc82610d16565b9050919050565b60008073ffffffffffffffffffffffffffffffffffffffff168273ffffffffffffffffffffffffffffffffffffffff16036107365760006040517f89c62b6400000000000000000000000000000000000000000000000000000000815260040161072d9190611e5f565b60405180910390fd5b600360008373ffffffffffffffffffffffffffffffffffffffff1673ffffffffffffffffffffffffffffffffffffffff168152602001908152602001600020549050919050565b60006008600083815260200190815260200160002060000160149054906101000a900467ffffffffffffffff169050919050565b6060600180546107c0906123dd565b80601f01602080910402602001604051908101604052809291908181526020018280546107ec906123dd565b80156108395780601f1061080e57610100808354040283529160200191610839565b820191906000526020600020905b81548152906001019060200180831161081c57829003601f168201915b5050505050905090565b61085561084e610ddb565b838361100f565b5050565b61086484848461055c565b61087861086f610ddb565b8585858561117e565b50505050565b6000426008600084815260200190815260200160002060000160149054906101000a900467ffffffffffffffff1667ffffffffffffffff16106108f9576008600083815260200190815260200160002060000160009054906101000a900473ffffffffffffffffffffffffffffffffffffffff1690506108fe565b600090505b919050565b606061090e82610d16565b50600060066000848152602001908152602001600020805461092f906123dd565b80601f016020809104026020016040519081016040528092919081815260200182805461095b906123dd565b80156109a85780601f1061097d576101008083540402835291602001916109a8565b820191906000526020600020905b81548152906001019060200180831161098b57829003601f168201915b5050505050905060006109b961132f565b905060008151036109ce578192505050610a11565b600082511115610a035780826040516020016109eb9291906124e4565b60405160208183030381529060405292505050610a11565b610a0c84611346565b925050505b919050565b600080600754905060076000815480929190610a3190612508565b9190505550610a4084826113af565b610a4a81846113cd565b336009600083815260200190815260200160002060006101000a81548173ffffffffffffffffffffffffffffffffffffffff021916908373ffffffffffffffffffffffffffffffffffffffff1602179055503373ffffffffffffffffffffffffffffffffffffffff16817f06becd955c918828f6e985541acbf49cc842c9e9bd569fffc7698e721ef1357585604051610ae39190611d99565b60405180910390a38091505092915050565b610b08610b01846106b1565b3385611429565b610b47576040517f08c379a0000000000000000000000000000000000000000000000000000000008152600401610b3e906125c2565b60405180910390fd5b6000600860008581526020019081526020016000209050828160000160006101000a81548173ffffffffffffffffffffffffffffffffffffffff021916908373ffffffffffffffffffffffffffffffffffffffff160217905550818160000160146101000a81548167ffffffffffffffff021916908367ffffffffffffffff1602179055508273ffffffffffffffffffffffffffffffffffffffff16847f4e06b4e7000e659094299b3533b47b6aa8ad048e95e872d23d1f4ee55af89cfe84604051610c139190611fb3565b60405180910390a350505050565b6000600560008473ffffffffffffffffffffffffffffffffffffffff1673ffffffffffffffffffffffffffffffffffffffff16815260200190815260200160002060008373ffffffffffffffffffffffffffffffffffffffff1673ffffffffffffffffffffffffffffffffffffffff16815260200190815260200160002060009054906101000a900460ff16905092915050565b6000634906490660e01b7bffffffffffffffffffffffffffffffffffffffffffffffffffffffff1916827bffffffffffffffffffffffffffffffffffffffffffffffffffffffff19161480610d0f5750610d0e826114ea565b5b9050919050565b600080610d22836115cc565b9050600073ffffffffffffffffffffffffffffffffffffffff168173ffffffffffffffffffffffffffffffffffffffff1603610d9557826040517f7e273289000000000000000000000000000000000000000000000000000000008152600401610d8c9190611ef5565b60405180910390fd5b80915050919050565b60006004600083815260200190815260200160002060009054906101000a900473ffffffffffffffffffffffffffffffffffffffff169050919050565b600033905090565b610df08383836001611609565b505050565b600080610e01846115cc565b9050600073ffffffffffffffffffffffffffffffffffffffff168373ffffffffffffffffffffffffffffffffffffffff1614610e4357610e428184866117ce565b5b600073ffffffffffffffffffffffffffffffffffffffff168173ffffffffffffffffffffffffffffffffffffffff1614610ed457610e85600085600080611609565b6001600360008373ffffffffffffffffffffffffffffffffffffffff1673ffffffffffffffffffffffffffffffffffffffff168152602001908152602001600020600082825403925050819055505b600073ffffffffffffffffffffffffffffffffffffffff168573ffffffffffffffffffffffffffffffffffffffff1614610f57576001600360008773ffffffffffffffffffffffffffffffffffffffff1673ffffffffffffffffffffffffffffffffffffffff168152602001908152602001600020600082825401925050819055505b846002600086815260200190815260200160002060006101000a81548173ffffffffffffffffffffffffffffffffffffffff021916908373ffffffffffffffffffffffffffffffffffffffff160217905550838573ffffffffffffffffffffffffffffffffffffffff168273ffffffffffffffffffffffffffffffffffffffff167fddf252ad1be2c89b69c2b068fc378daa952ba7f163c4a11628f55a4df523b3ef60405160405180910390a4809150509392505050565b600073ffffffffffffffffffffffffffffffffffffffff168273ffffffffffffffffffffffffffffffffffffffff160361108057816040517f5b08ba180000000000000000000000000000000000000000000000000000000081526004016110779190611e5f565b60405180910390fd5b80600560008573ffffffffffffffffffffffffffffffffffffffff1673ffffffffffffffffffffffffffffffffffffffff16815260200190815260200160002060008473ffffffffffffffffffffffffffffffffffffffff1673ffffffffffffffffffffffffffffffffffffffff16815260200190815260200160002060006101000a81548160ff0219169083151502179055508173ffffffffffffffffffffffffffffffffffffffff168373ffffffffffffffffffffffffffffffffffffffff167f17307eab39ab6107e8899845ad3d59bd9653f200f220920489ca2b5937696c31836040516111719190611cee565b60405180910390a3505050565b60008373ffffffffffffffffffffffffffffffffffffffff163b1115611328578273ffffffffffffffffffffffffffffffffffffffff1663150b7a02868685856040518563ffffffff1660e01b81526004016111dd9493929190612637565b6020604051808303816000875af192505050801561121957506040513d601f19601f820116820180604052508101906112169190612698565b60015b61129d573d8060008114611249576040519150601f19603f3d011682016040523d82523d6000602084013e61124e565b606091505b50600081510361129557836040517f64a0ae9200000000000000000000000000000000000000000000000000000000815260040161128c9190611e5f565b60405180910390fd5b805160208201fd5b63150b7a0260e01b7bffffffffffffffffffffffffffffffffffffffffffffffffffffffff1916817bffffffffffffffffffffffffffffffffffffffffffffffffffffffff19161461132657836040517f64a0ae9200000000000000000000000000000000000000000000000000000000815260040161131d9190611e5f565b60405180910390fd5b505b5050505050565b606060405180602001604052806000815250905090565b606061135182610d16565b50600061135c61132f565b9050600081511161137c57604051806020016040528060008152506113a7565b8061138684611892565b6040516020016113979291906124e4565b6040516020818303038152906040525b915050919050565b6113c9828260405180602001604052806000815250611960565b5050565b806006600084815260200190815260200160002090816113ed9190612871565b507ff8e1a15aba9398e019f0b49df1a4fde98ee17ae345cb5f6b5e2c27f5033e8ce78260405161141d9190611ef5565b60405180910390a15050565b60008073ffffffffffffffffffffffffffffffffffffffff168373ffffffffffffffffffffffffffffffffffffffff16141580156114e157508273ffffffffffffffffffffffffffffffffffffffff168473ffffffffffffffffffffffffffffffffffffffff1614806114a257506114a18484610c21565b5b806114e057508273ffffffffffffffffffffffffffffffffffffffff166114c883610d9e565b73ffffffffffffffffffffffffffffffffffffffff16145b5b90509392505050565b60007f80ac58cd000000000000000000000000000000000000000000000000000000007bffffffffffffffffffffffffffffffffffffffffffffffffffffffff1916827bffffffffffffffffffffffffffffffffffffffffffffffffffffffff191614806115b557507f5b5e139f000000000000000000000000000000000000000000000000000000007bffffffffffffffffffffffffffffffffffffffffffffffffffffffff1916827bffffffffffffffffffffffffffffffffffffffffffffffffffffffff1916145b806115c557506115c482611984565b5b9050919050565b60006002600083815260200190815260200160002060009054906101000a900473ffffffffffffffffffffffffffffffffffffffff169050919050565b80806116425750600073ffffffffffffffffffffffffffffffffffffffff168273ffffffffffffffffffffffffffffffffffffffff1614155b1561177657600061165284610d16565b9050600073ffffffffffffffffffffffffffffffffffffffff168373ffffffffffffffffffffffffffffffffffffffff16141580156116bd57508273ffffffffffffffffffffffffffffffffffffffff168173ffffffffffffffffffffffffffffffffffffffff1614155b80156116d057506116ce8184610c21565b155b1561171257826040517fa9fbf51f0000000000000000000000000000000000000000000000000000000081526004016117099190611e5f565b60405180910390fd5b811561177457838573ffffffffffffffffffffffffffffffffffffffff168273ffffffffffffffffffffffffffffffffffffffff167f8c5be1e5ebec7d5bd14f71427d1e84f3dd0314c0f7b2291e5b200ac8c7c3b92560405160405180910390a45b505b836004600085815260200190815260200160002060006101000a81548173ffffffffffffffffffffffffffffffffffffffff021916908373ffffffffffffffffffffffffffffffffffffffff16021790555050505050565b6117d9838383611429565b61188d57600073ffffffffffffffffffffffffffffffffffffffff168373ffffffffffffffffffffffffffffffffffffffff160361184e57806040517f7e2732890000000000000000000000000000000000000000000000000000000081526004016118459190611ef5565b60405180910390fd5b81816040517f177e802f000000000000000000000000000000000000000000000000000000008152600401611884929190612943565b60405180910390fd5b505050565b6060600060016118a1846119ee565b01905060008167ffffffffffffffff8111156118c0576118bf612044565b5b6040519080825280601f01601f1916602001820160405280156118f25781602001600182028036833780820191505090505b509050600082602083010190505b600115611955578080600190039150507f3031323334353637383961626364656600000000000000000000000000000000600a86061a8153600a85816119495761194861296c565b5b04945060008503611900575b819350505050919050565b61196a8383611b41565b61197f611975610ddb565b600085858561117e565b505050565b60007f01ffc9a7000000000000000000000000000000000000000000000000000000007bffffffffffffffffffffffffffffffffffffffffffffffffffffffff1916827bffffffffffffffffffffffffffffffffffffffffffffffffffffffff1916149050919050565b600080600090507a184f03e93ff9f4daa797ed6e38ed64bf6a1f0100000000000000008310611a4c577a184f03e93ff9f4daa797ed6e38ed64bf6a1f0100000000000000008381611a4257611a4161296c565b5b0492506040810190505b6d04ee2d6d415b85acef81000000008310611a89576d04ee2d6d415b85acef81000000008381611a7f57611a7e61296c565b5b0492506020810190505b662386f26fc100008310611ab857662386f26fc100008381611aae57611aad61296c565b5b0492506010810190505b6305f5e1008310611ae1576305f5e1008381611ad757611ad661296c565b5b0492506008810190505b6127108310611b06576127108381611afc57611afb61296c565b5b0492506004810190505b60648310611b295760648381611b1f57611b1e61296c565b5b0492506002810190505b600a8310611b38576001810190505b80915050919050565b600073ffffffffffffffffffffffffffffffffffffffff168273ffffffffffffffffffffffffffffffffffffffff1603611bb35760006040517f64a0ae92000000000000000000000000000000000000000000000000000000008152600401611baa9190611e5f565b60405180910390fd5b6000611bc183836000610df5565b9050600073ffffffffffffffffffffffffffffffffffffffff168173ffffffffffffffffffffffffffffffffffffffff1614611c355760006040517f73c6ac6e000000000000000000000000000000000000000000000000000000008152600401611c2c9190611e5f565b60405180910390fd5b505050565b6000604051905090565b600080fd5b600080fd5b60007fffffffff0000000000000000000000000000000000000000000000000000000082169050919050565b611c8381611c4e565b8114611c8e57600080fd5b50565b600081359050611ca081611c7a565b92915050565b600060208284031215611cbc57611cbb611c44565b5b6000611cca84828501611c91565b91505092915050565b60008115159050919050565b611ce881611cd3565b82525050565b6000602082019050611d036000830184611cdf565b92915050565b600081519050919050565b600082825260208201905092915050565b60005b83811015611d43578082015181840152602081019050611d28565b60008484015250505050565b6000601f19601f8301169050919050565b6000611d6b82611d09565b611d758185611d14565b9350611d85818560208601611d25565b611d8e81611d4f565b840191505092915050565b60006020820190508181036000830152611db38184611d60565b905092915050565b6000819050919050565b611dce81611dbb565b8114611dd957600080fd5b50565b600081359050611deb81611dc5565b92915050565b600060208284031215611e0757611e06611c44565b5b6000611e1584828501611ddc565b91505092915050565b600073ffffffffffffffffffffffffffffffffffffffff82169050919050565b6000611e4982611e1e565b9050919050565b611e5981611e3e565b82525050565b6000602082019050611e746000830184611e50565b92915050565b611e8381611e3e565b8114611e8e57600080fd5b50565b600081359050611ea081611e7a565b92915050565b60008060408385031215611ebd57611ebc611c44565b5b6000611ecb85828601611e91565b9250506020611edc85828601611ddc565b9150509250929050565b611eef81611dbb565b82525050565b6000602082019050611f0a6000830184611ee6565b92915050565b600080600060608486031215611f2957611f28611c44565b5b6000611f3786828701611e91565b9350506020611f4886828701611e91565b9250506040611f5986828701611ddc565b9150509250925092565b600060208284031215611f7957611f78611c44565b5b6000611f8784828501611e91565b91505092915050565b600067ffffffffffffffff82169050919050565b611fad81611f90565b82525050565b6000602082019050611fc86000830184611fa4565b92915050565b611fd781611cd3565b8114611fe257600080fd5b50565b600081359050611ff481611fce565b92915050565b6000806040838503121561201157612010611c44565b5b600061201f85828601611e91565b925050602061203085828601611fe5565b9150509250929050565b600080fd5b600080fd5b7f4e487b7100000000000000000000000000000000000000000000000000000000600052604160045260246000fd5b61207c82611d4f565b810181811067ffffffffffffffff8211171561209b5761209a612044565b5b80604052505050565b60006120ae611c3a565b90506120ba8282612073565b919050565b600067ffffffffffffffff8211156120da576120d9612044565b5b6120e382611d4f565b9050602081019050919050565b82818337600083830152505050565b600061211261210d846120bf565b6120a4565b90508281526020810184848401111561212e5761212d61203f565b5b6121398482856120f0565b509392505050565b600082601f8301126121565761215561203a565b5b81356121668482602086016120ff565b91505092915050565b6000806000806080858703121561218957612188611c44565b5b600061219787828801611e91565b94505060206121a887828801611e91565b93505060406121b987828801611ddc565b925050606085013567ffffffffffffffff8111156121da576121d9611c49565b5b6121e687828801612141565b91505092959194509250565b600067ffffffffffffffff82111561220d5761220c612044565b5b61221682611d4f565b9050602081019050919050565b6000612236612231846121f2565b6120a4565b9050828152602081018484840111156122525761225161203f565b5b61225d8482856120f0565b509392505050565b600082601f83011261227a5761227961203a565b5b813561228a848260208601612223565b91505092915050565b600080604083850312156122aa576122a9611c44565b5b60006122b885828601611e91565b925050602083013567ffffffffffffffff8111156122d9576122d8611c49565b5b6122e585828601612265565b9150509250929050565b6122f881611f90565b811461230357600080fd5b50565b600081359050612315816122ef565b92915050565b60008060006060848603121561233457612333611c44565b5b600061234286828701611ddc565b935050602061235386828701611e91565b925050604061236486828701612306565b9150509250925092565b6000806040838503121561238557612384611c44565b5b600061239385828601611e91565b92505060206123a485828601611e91565b9150509250929050565b7f4e487b7100000000000000000000000000000000000000000000000000000000600052602260045260246000fd5b600060028204905060018216806123f557607f821691505b602082108103612408576124076123ae565b5b50919050565b7f4e487b7100000000000000000000000000000000000000000000000000000000600052601160045260246000fd5b600061244882611dbb565b915061245383611dbb565b925082820390508181111561246b5761246a61240e565b5b92915050565b60006060820190506124866000830186611e50565b6124936020830185611ee6565b6124a06040830184611e50565b949350505050565b600081905092915050565b60006124be82611d09565b6124c881856124a8565b93506124d8818560208601611d25565b80840191505092915050565b60006124f082856124b3565b91506124fc82846124b3565b91508190509392505050565b600061251382611dbb565b91507fffffffffffffffffffffffffffffffffffffffffffffffffffffffffffffffff82036125455761254461240e565b5b600182019050919050565b7f4552433732313a207472616e736665722063616c6c6572206973206e6f74206f60008201527f776e6572206e6f7220617070726f766564000000000000000000000000000000602082015250565b60006125ac603183611d14565b91506125b782612550565b604082019050919050565b600060208201905081810360008301526125db8161259f565b9050919050565b600081519050919050565b600082825260208201905092915050565b6000612609826125e2565b61261381856125ed565b9350612623818560208601611d25565b61262c81611d4f565b840191505092915050565b600060808201905061264c6000830187611e50565b6126596020830186611e50565b6126666040830185611ee6565b818103606083015261267881846125fe565b905095945050505050565b60008151905061269281611c7a565b92915050565b6000602082840312156126ae576126ad611c44565b5b60006126bc84828501612683565b91505092915050565b60008190508160005260206000209050919050565b60006020601f8301049050919050565b600082821b905092915050565b6000600883026127277fffffffffffffffffffffffffffffffffffffffffffffffffffffffffffffffff826126ea565b61273186836126ea565b95508019841693508086168417925050509392505050565b6000819050919050565b600061276e61276961276484611dbb565b612749565b611dbb565b9050919050565b6000819050919050565b61278883612753565b61279c61279482612775565b8484546126f7565b825550505050565b600090565b6127b16127a4565b6127bc81848461277f565b505050565b5b818110156127e0576127d56000826127a9565b6001810190506127c2565b5050565b601f821115612825576127f6816126c5565b6127ff846126da565b8101602085101561280e578190505b61282261281a856126da565b8301826127c1565b50505b505050565b600082821c905092915050565b60006128486000198460080261282a565b1980831691505092915050565b60006128618383612837565b9150826002028217905092915050565b61287a82611d09565b67ffffffffffffffff81111561289357612892612044565b5b61289d82546123dd565b6128a88282856127e4565b600060209050601f8311600181146128db57600084156128c9578287015190505b6128d38582612855565b86555061293b565b601f1984166128e9866126c5565b60005b82811015612911578489015182556001820191506020850194506020810190506128ec565b8683101561292e578489015161292a601f891682612837565b8355505b6001600288020188555050505b505050505050565b60006040820190506129586000830185611e50565b6129656020830184611ee6565b9392505050565b7f4e487b7100000000000000000000000000000000000000000000000000000000600052601260045260246000fdfea264697066735822122061f213d8bba87838e4475c744f9565db4c505b73e055732d3186c80c5a54a0a064736f6c63430008140033",
  "linkReferences": {},
  "deployedLinkReferences": {}
}